:020000040800F2
:10000000900E0020D500000811430008ED410008C3
:1000100000000000000000000000000000000000E0
:100020000000000000000000000000003749000848
:100030000000000000000000814400087961000811
:10004000E7000008E70000085B450008E70000083B
:10005000E700000805120008151200082512000824
:10006000E7000008E7000008E7000008CD0E0008E0
:10007000E7000008E7000008E7000008E7000008C4
:10008000E7000008E7000008E700000800000000A3
:1000900061620008E7000008E7000008E7000008C8
:1000A000E7000008E7000008E7000008E700000894
:1000B000E7000008F544000800000000E700000821
:1000C0000348854600F0ECFB0048004785820008A5
:1000D000900E00200448804704480047FEE7FEE7F2
:1000E000FEE7FEE7FEE7FEE70D620008C10000083C
:1000F00030B50B46014600202022012409E00D46C0
:10010000D5409D4205D31D469540491B2546954047
:1001100040191546521E002DF1DC30BDF0B51FB45C
:100120000646002082B005464024019100901BE065
:10013000019922460F46304600F0BCFA049A059B0E
:10014000801A994110D310461946224600F0A2FAAF
:10015000361A8F410197224601200021009F00F0AE
:1001600099FA38184D4100902046641E0028DFDCC3
:10017000019B00982946324607B0F0BDF0B51FB488
:1001800086B000200090019002900698069980B2F7
:1001900004900798090C02040014114307900027EB
:1001A000089D099806913E463C4603900398A9B2E3
:1001B0000204000C039004982D0C154348430021C1
:1001C000224600F067FAC719714110340E46402CE0
:1001D000ECDB3846029A00F05DFA009A019B801829
:1001E0000090594102980191103002904028CCDBD8
:1001F00000980BB0F0BD03460B439B0703D009E00A
:1002000008C9121F08C0042AFAD203E00B78037051
:10021000401C491C521EF9D27047D2B201E0027054
:10022000401C491EFBD270470022F6E710B513466A
:100230000A4604461946FFF7F0FF204610BD421C4F
:100240000178401C0029FBD1801A704710B50022AC
:1002500000E0521C835C8C5CA34201D1002BF8D1DE
:10026000D8B2E1B2401A10BD30B5054600200346B1
:1002700000E05B1C934205D2EC5CC85C201A01D103
:10028000002CF6D130BD0321001D401E0378120260
:100290001A43491EF9D5104670470000F0B50746CD
:1002A0000846584087B0C00F049048000E465900D9
:1002B00040084908BC1A884105D2384631461E46D6
:1002C00017460B4602465800400810434CD0300DEC
:1002D000039040055900400D490D0590401A0290C9
:1002E000402872DA18030121000B09050843019028
:1002F00004980092002805D00199524200208841BC
:1003000000920190029840210A1A0199009800F089
:10031000C1F905460C466B4607CB00F0DCF9C01965
:100320007141039A0E0D0023D71756401A467A40A2
:10033000164344D0049A002A2DD0029A012A039A27
:1003400015DC1205C01A914101263605001C7141C9
:10035000D20F059ED2070093019202962A462346A9
:1003600000F0D9F907B0F0BD38463146FAE7160576
:10037000224A0F46B218C01AB74101210905001CD4
:100380004F4100187F41114618187941E20F104380
:100390006D19644113E0E2076D0815436408C20754
:1003A0001443039A01261205C01A91413605001C18
:1003B0007141CE07400830434908C01851412A46D0
:1003C000234600F09BF9CDE7FFE7049801224000A7
:1003D000C117121A00238B4104983146C417381AEA
:1003E000A141EEE730B40124E407634030BC55E797
:1003F00030B40124E407614030BC4FE70000E0FF67
:10040000F0B51FB488B00B990998002448400999A9
:10041000C00F490049080991C0070B990090490095
:1004200049080B9109990898A64608431CD00B99D6
:100430000A98084318D0099801244000420D48004A
:10044000410D099824050003000B204309900B98E7
:100450000003000B20430B9050181C494018002249
:1004600001901446104605E0002001460DB0F0BD95
:10047000032801DA034600E003239C46C11A0AAEB2
:100480000AE05F0008ADED5B4F00F75B7D4300279E
:10049000AA187C41491C5B1E6145F2DD410004AB9A
:1004A0005A522104120C0A43240C401C0828DFDB9A
:1004B000019802900099704601910090059B049A62
:1004C0000799069800F027F9D0E700000DFCFFFF20
:1004D000F0B50C465C4085B0E40FE40703944C0093
:1004E00000266408590094464908024602962243B1
:1004F00021D062460A431ED06200570D4A000E0307
:100500002303550D012402462C492405781B1B0B9F
:10051000360B401823432643614600901C46501A70
:10052000B44103D30098401C009002E09218009858
:100530005B41002803DA0020014605B0F0BD002031
:10054000012109050746864611E064461D46141B35
:10055000B54106D36546521BB341744607430C436D
:10056000A646CD0740084908284392185B41054636
:100570000D43EAD11046184313D060461946504047
:100580007140084306D06046101AB34106D20122DA
:10059000002306E000220123DB0702E00122D24310
:1005A0005310009874460105381C6141029C039D5C
:1005B0000019694100F0A2F8BFE70000FD03000048
:1005C00070B54B005B0803430BD04B005C0D00265D
:1005D00033466542B341D417AD1AA34102DB002074
:1005E000014670BD12053018514170BD0EB5C217DD
:1005F000C10F5040CA0740180021054B02930192D9
:1006000000910A460B4600F086F803B000BD0000DA
:10061000330400000EB505490291002100910A46FD
:100620000B46019100F077F803B000BD33040000E1
:100630004A0009030123090B1B051943094B10B597
:10064000520D9A4201DA002010BD064B34339A4213
:1006500003DC9A1A00F02EF810BD034951188840A7
:1006600010BD0000FF030000CDFBFFFF10B5002907
:1006700004DB0124E40740428C412146002B04DBCB
:100680001C460123DB075242A341994200D190420C
:1006900010BD000010B5202A04DB0146203A91402D
:1006A000002010BD914020239C1A0346E3401943CB
:1006B000904010BD10B5202A04DB0846203AD040F7
:1006C000002110BD0B46D340D0402024A21A9140F7
:1006D0000843194610BD10B5202A06DBCB17084683
:1006E000203A1041C1170B4306E00B461341D0409E
:1006F0002024A21A91400843194610BD10B5002BC2
:1007000008DA0024401C614192185B411A4301D170
:100710004008400010BDF0B51FB482B005460C0083
:1007200003D0084606F066FA02E006F063FA2030CD
:100730000246009021462846FFF7ACFF049B059A2D
:1007400004460F4618431143084314D0184610437B
:100750001BD0009840210A1A18460599FFF7AAFFF6
:1007600005460E46009A05990498FFF793FF084343
:1007700005D0012004E02046394607B0F0BD002036
:10078000C11705430E432C43374300990E98630568
:10079000401A7905E40A00220C43FD0A0A3002D50A
:1007A00000200146E9E70105101969410C9C0D9DE7
:1007B00000196941FFF7A2FFDFE70000F8B5054621
:1007C000480040080C46284304D06000184A400DF9
:1007D000904201DD2846F8BD15493539884210DCC4
:1007E00088420BDB290D200308432903014305D070
:1007F000E00F1049C00741180020F8BD0020014655
:10080000F8BD161A4020821B28462146FFF742FFFA
:1008100007460091284621463246FFF74BFF3A46ED
:10082000009BFFF76BFF3246FFF734FFF8BD000077
:10083000330400000000F03F4A0009030123090BC4
:100840001B0519430A4B10B5520D9A4202DA0020DB
:10085000014610BD064B34339A4203DC9A1AFFF767
:1008600029FF10BD034BD218FFF714FF10BD000085
:10087000FF030000CDFBFFFF10B5002904DB0124BE
:10088000E40740428C412146002B04DB1C46012337
:10089000DB075242A3418B4200D1824210BD0000CF
:1008A000064C0125064E05E0E36807CC2B430C3CC3
:1008B00098471034B442F7D3FFF706FC2498000899
:1008C00044980008F0B58BB014216846FFF7ACFCE3
:1008D000124CE06A01252843E062E06A00262840C5
:1008E0000A90A01403276A46E1C205206946000762
:1008F00001F024FA142105A8FFF796FCE16A022012
:100900000143E162E16A01400A91400305A9E1C1A6
:100910000348103901F012FA0BB0F0BD001002408C
:100920000004005000B587B014216846FFF77CFC36
:100930000A48C26A01210A43C262C06A01910840A2
:100940000590032000900021039002910520694644
:10095000000701F0F3F907B000BD000000100240ED
:1009600001780448024A4368D1540121017070475C
:100970006C0800209400002010B5034808F056F9D8
:1009800002490020087010BD610900089400002091
:1009900010B51248017801290ED100210170104BC9
:1009A00042689C5C012C08D00D2C09D00A2C07D081
:1009B0007F2A0DD0521C426010BD4160082009E022
:1009C000002AF9D099544160054807F083FD10BD15
:1009D0004160062007F04AFB10BD00009400002093
:1009E0006C080020FFB5044689B0002003900890F1
:1009F000069021891646002915D00190626904925B
:100A00002069002A04D000290FD00A4692B203922E
:100A1000002900D00E46E168884215D3039A616828
:100A20008018081A11E00220E7E722686568135C65
:100A3000471CAF4202D3451B6D1C00E03D46525D92
:100A40001202921C9A18E1E7002001997518079587
:100A50000C994D43854201D2002102E00799FFF72E
:100A600047FBC8B20199884208D9217FCA0700D143
:100A700006980690880701D5019800E00698002E98
:100A80006AD00499491908186168884264D8002717
:100A900098E0039808186168884200D3401A2061E2
:100AA0002189002911D121680E546168401C8142BE
:100AB00000D8401A2268310A11546168401C8142F2
:100AC00000D8401A6169891C616161680D1AB542DC
:100AD00000D33546B5420DD0B54202D2217F002960
:100AE00008D0002D6AD0217FCA0730D02189002983
:100AF00013D019E039460A9A7143891822681018F0
:100B00002A46FFF778FB60694019606107990895EC
:100B1000002089B2751B039140E02368FF22811EEB
:100B20005A542168401E0A546069401960610020CF
:100B300008902189354600292AD12068057021684E
:100B4000280A487061690220891C616120E08907D8
:100B50001ED52189002902D000200DB0F0BD2168EA
:100B6000821E8D542268290A431ED15439460A9A9E
:100B700071438918226810182A46FFF73CFB606908
:100B8000401960610895A069751B401CA061D4E7FD
:100B90000199691889B2039100212161002D0DD0BE
:100BA000089A0A993B468918226873431018591805
:100BB0002A46FFF720FB606940196061A069401C6C
:100BC0007F1CA0610C982169874200D261E70198DF
:100BD00008186168884200D3401A21684018BCE7B1
:100BE00010B5029C01600021C16001614161426059
:100BF000816103810477A00703D5002B01D0481E33
:100C000010BD002010BD0000F0B503890022002BAC
:100C100009D0002300240C804469002C58D002899C
:100C2000002A02D00DE00223F4E7C2680468466897
:100C3000A55C571CB74200D3921B521CA25C120247
:100C4000AA1894B20C80027FD50729D0920727D426
:100C5000204A944202D10289002A0AD0C46802695B
:100C600094421DD90289002A1AD045682C1B94424F
:100C700016D24468C2684569A21AAA1A42610022C3
:100C8000C2600289002A0AD10268012C157802D8B4
:100C90006442641C00E00124125D1202AA180A805A
:100CA000C5684468EA18A24200D3121B06680F8880
:100CB00092194669FF18F61B466106D00988691823
:100CC000C918A14200D3091BC1608169491E816115
:100CD0001046F0BDFFFF0000F0B503890022002B95
:100CE0000AD0002700230B804369002B42D00389E0
:100CF000C268002B02D00DE00227F3E705684468C4
:100D0000531CAE5CA342134600D31B1B5B1CEB5C65
:100D10001B02F3189CB20C80037FDD0723D09B07D6
:100D200021D4154B9C4202D10389002B0AD0C46800
:100D300003699C4217D90389002B14D045682C1BEA
:100D40009C4210D200221B041B0C0BD14368046888
:100D5000012B02D85B425B1C00E00123E35C24789A
:100D60001B021B190B80D1194268914200D3891ACA
:100D700000680A181046F0BDFFFF000010B51AA069
:100D800005F004FC0028FAD11FA005F0FFFB0028A5
:100D9000FAD1234C2068002805D02068122813D0EF
:100DA00000F0ACF810BD07F08BF901221D49204678
:100DB00000F0F6F91CA005F0E9FB0028FAD119496A
:100DC00001201439087010BD07F07AF90122154985
:100DD000204600F0E5F9BFF34F8F23492148C86052
:100DE000BFF34F8F00BFFDE70A0D44524147494E04
:100DF0004F204C542D32323232322D4C2050494E3D
:100E000047504F4E470A0D00496D61676520566592
:100E10007273696F6E3A2076312E300A0D00000031
:100E200000000808B0000020506C656173652073F5
:100E300065742074686520706172616D6574657297
:100E400073206F72207265736574204465766963E0
:100E50006520746F206170706C79206368616E67C3
:100E6000650A0D000400FA0500ED00E030B587B01A
:100E700014216846FFF7D8F9032001900020029062
:100E800003204003104C0090E06A01210843E06217
:100E9000E06A0840059005206946000700F04EFF13
:100EA000E06A40084000E062606B0125AD05284320
:100EB000606300F085FC00F093FC00F089FC606B3F
:100EC000A843606307B030BD0010024010B507F0C2
:100ED0004FFE10BD10B5046863608368102B036873
:100EE00003D099600068C26010BD9A600068C1605C
:100EF00010BD10B502F03CFF10BD000070B58AB007
:100F0000324D00246E46284600F088FAA100641C89
:100F10002D1D70500A2CF6DB2D48009901620199B5
:100F200081610299C16103990A0E014624310A7058
:100F3000039A120C4A70039A120A8A70039ACA70B2
:100F4000049A120E0A71049A120C4A71049A120A37
:100F50008A71049ACA710599090E00D00121817025
:100F60000599090C0906090E00D00121C1700599E7
:100F7000090A4171059981710699090EC171069995
:100F8000090C41720699090A0172069901710799C3
:100F9000090CC181079901820899090C817208998D
:100FA000090AC1720899017309980A49000E08706C
:100FB00009980949000C087009980849000A087046
:100FC0000749099808700AB070BD00006000080861
:100FD0009C000020650000206600002067000020C3
:100FE00068000020F8B53B4C3B4D6078216A8200D8
:100FF000A950401CC0B28200A169A950401CC0B2D7
:101000008200401CC6B2E1692046A9502430FFF797
:101010003AF9274600BA2437000AF9780002084353
:10102000B1006850761CF6B2381DFFF72CF900BAF3
:10103000000AF97900020843B1006850A178E2780B
:101040000906120411436279761C12021143A27937
:10105000F0B211438200A950E179627A09061204C4
:101060001143227A401C120211432279C0B211436B
:101070008200A950E189228A401C0904C0B21143B0
:101080008200A950A17AE27A090412021143227B5C
:10109000401CC0B211438200A9501049104A09787F
:1010A00012780906120411430E4A401C1278C0B28D
:1010B000120211430C4A127811438200A950401CBD
:1010C000C2B262702946094800F06AF800206070D8
:1010D000F8BD00009C000020EC0800206500002006
:1010E00066000020670000206800002060000808FB
:1010F00070B50D4DEFF3108472B600F0FDFD0A4E91
:101100007836284600F0B0FD002804D084F310881B
:1011100006A005F03BFA2D1DB542F2D300F0B8FD54
:1011200084F3108870BD0000600008086572726F5B
:101130007220696E20454550524F4D2045726173B3
:1011400065206F7065726174696F6E0A0D00000032
:1011500070B50546EFF3108472B600F0CDFD284659
:1011600000F082FD002804D084F3108803A005F06D
:101170000DFA00F08DFD84F3108870BD6572726FFA
:101180007220696E20454550524F4D204572617363
:1011900065206F7065726174696F6E0A0D000000E2
:1011A000F7B5174600260546EFF3108472B600F037
:1011B000A3FD0DE00198B10042582946022000F03D
:1011C00071FD00280BD084F3108806A005F0DEF92D
:1011D000BE42EFDB00F05CFD84F31088FEBD2D1DE8
:1011E000761CF5E76572726F7220696E2045455076
:1011F000524F4D205772697465206572726F720D7F
:101200000000000010B5012000F08CFD022000F06D
:1012100089FD10BD10B5042000F084FD082000F009
:1012200081FD10BDF8B5102000F07CFD202000F0FD
:1012300079FD402000F076FD802000F073FDFF2056
:10124000013000F06FFD2E4D6869012680052D4CA0
:1012500000281DDA2C4F3888002803D0A0780028F9
:1012600002D010E026700EE001210520490200079F
:1012700000F026FE20713988244805F0FBF8234849
:1012800005F00AF9A67001204002686100F046FDF1
:101290000120800200F046FD0120C00200F042FD66
:1012A0006869C0041ED51A4F3888002803D0E0783A
:1012B000002802D011E066700FE0012109031548F3
:1012C00000F0FEFD607111483988143005F0D2F845
:1012D0000E48143005F0E0F8E67001200003686164
:1012E00000F01CFD0120400300F01CFD01208003E4
:1012F00000F018FD0120C00300F014FDF8BD00004F
:101300000004014082000020AA0000209407002071
:10131000AC00002000040050FEE7000010B5214A98
:1013200000219069C305204804D54169022319436F
:101330004161911593699B0505D5436901242343B8
:1013400043616302194393695B0505D5436908242A
:1013500023434361E301194393691B0505D54369A1
:101360000424234343616302194393699B0405D515
:1013700043691024234343616302194393699B0328
:1013800004D5446920231C43446119439369DB035A
:1013900005D54369402423434361A0020143916181
:1013A00010BD000000200240C402002070B50546B8
:1013B00000F096FD0646184C0AE0681C08D0002D87
:1013C00004D000F08DFD801BA84201D9032070BD20
:1013D000A069C007F1D1A069800701D50220A061F2
:1013E000A069C00511D4A06980050ED4A06940058C
:1013F0000BD4A069000508D4A069800405D4A069B5
:10140000800302D4A069C00303D5FFF787FF012042
:1014100070BD002070BD000000200240016802483D
:1014200001600068704700002000002010B586B001
:10143000044614216846FEF7F7FE1748C16A0122E8
:101440001143C162C06A0021104005905002009013
:1014500005200007002C14D0012C14D0022C14D02D
:1014600001910291694600F069FC022C07D8002224
:101470000321072000F0AEFD072000F0A1FD06B01B
:1014800010BD064A02E0064A00E0064A02910192B7
:10149000694600F053FCEAE700100240000021100A
:1014A000000011100000311010B586B00446142160
:1014B0006846FEF7B9FE1748C26A02210A43C262B3
:1014C000C06A08400590C802009000211248002C14
:1014D00014D0012C14D0022C14D001910291694631
:1014E00000F02CFC022C07D800220321072000F07A
:1014F00071FD072000F064FD06B010BD074A02E050
:10150000074A00E0074A02910192694600F016FC82
:10151000EAE7000000100240000400500000211023
:10152000000011100000311010B5094A0021CB0055
:10153000D458844207D89B189B68834203D9C800BB
:101540008018007910BD491CC9B21529EFD3FEE7F8
:101550009C8C000830B593B038216846FEF764FED5
:1015600001250024059508200A940090684601F0A2
:1015700003F8002801D0FFF7CFFE1B491B4812C01B
:1015800004601B4984604160083801F0B5FF002801
:1015900001D0FFF7C1FE1421144801F0D0FE0C2049
:1015A00010900E9400220EA90F9511940F4801F08F
:1015B000FDFE002801D0FFF7AFFE00210B4801F02F
:1015C000C9FF002801D0FFF7A7FE0A4CA068022837
:1015D000FCD10021054801F0E1FF044801F076FF4D
:1015E000606813B030BD0000000801408C0200208C
:1015F000FFFF00002400002070B5040006D0A06D9D
:10160000264600254036002802D006E0012070BDA5
:10161000E5653575204600F0D1F8A06DC00603D40D
:1016200021688868400705D5A06D10210843A06592
:101630003575EBE7A06DFF22013290430222104383
:10164000A06588688207920F5A48012A02D10A6869
:10165000D2072BD1032362689B079A4205D05B42D5
:101660009A4202D05B009A4209D10A69920092081C
:101670000A6121680A6963681A430A610CE00A6911
:10168000920092080A6181680F229204914381605E
:1016900081686268114381602168CA6818239A438F
:1016A000CA602168CA68A3681A43CA6081680122B7
:1016B0005206914381608168228F520611438160F6
:1016C00020688168C90004D481680122120711438F
:1016D00081602068C168384A1140C1602169E068B2
:1016E000022923D000210843216A226B49035200BA
:1016F00011430843616B0843A16989030843E16909
:10170000C90308432168CA681043C860A06A01463B
:10171000FF39C23905D0E16A08432168CA6810431D
:10172000C860606A0121012802D00BE00421DAE7D9
:10173000206A002823D0A06D20221043A065E06D10
:101740000843E065206C012820681FD00169C907A3
:1017500003D0016949084900016120684169C9084D
:10176000C900416120684169E26B11434161E5654F
:10177000A06D80088000401CA065002070BD20681E
:10178000C26801231B041A43C260DBE70269FF231E
:101790009B009A43026120680269636CE66C1A43FD
:1017A000A36C33431A430261206802690A43026151
:1017B000D3E70000002701401902FEFF7047000038
:1017C000024841684908490041607047005801409B
:1017D000024841680422914341607047005801402B
:1017E000024841680222914341607047005801401D
:1017F00070B50024024620325179022903D0042119
:10180000C16301243CE001680B680E25AB430B600B
:1018100001680B685B085B000B601A4B016899421A
:1018200001D1012121E0174B1433994201D110213C
:101830001BE0144B2833994201D1891515E0114B57
:101840003C33994201D189140FE00E4B5033994239
:1018500002D10121090408E00A4B6433994202D104
:101860000121090501E001210906064B083B5960E9
:101870000121517100211171816B002900D088472D
:10188000204670BD08000240F8B504469D48016836
:101890009C4A9C4E9B4F0832206813041C363037FC
:1018A000904201D108221EE0B04201D180221AE00C
:1018B000B84202D10122D20215E0924A443290424B
:1018C00002D10122D2030EE08E4A5832904201D159
:1018D0001A4608E08B4A6C32904202D10122D205AE
:1018E00001E00122D20625461140203500293BD0D7
:1018F0000168090738D501680822914301608149D0
:1019000020680831884201D108201EE0B04201D190
:1019100080201AE0B84202D10120C00215E07949C6
:101920004431884202D10120C0030EE0754958318C
:10193000884201D1184608E072496C31884202D1D0
:101940000120C00501E00120C0066E494860E06B3F
:1019500001210843E0630420687100202871616B55
:10196000002901D02046884766480168654A2068FA
:1019700008321315904201D104221EE0B04201D179
:1019800040221AE0B84201D11A4616E05D4A4432BC
:10199000904202D1012292030FE05A4A58329042FB
:1019A00002D10122920408E0564A6C32904202D1E0
:1019B0000122920501E001229206114238D001680D
:1019C000490735D50168890603D4026804218A4392
:1019D00002604C4920680831884201D104201EE091
:1019E000B04201D140201AE0B84201D1184616E0B9
:1019F00044494431884202D1012080030FE041492B
:101A00005831884202D10120800408E03D496C3100
:101A1000884202D10120800501E001208006394979
:101A2000486005206871216B002901D02046884755
:101A300034480168334A206808325315904201D176
:101A400002221EE0B04201D120221AE0B84201D1A8
:101A50001A4616E02B4A4432904202D10122520328
:101A60000FE0284A5832904202D10122520408E085
:101A7000244A6C32904202D10122520501E0012237
:101A8000520611423CD00168890739D501688906A0
:101A900003D401680222914301601A492068083189
:101AA000884201D102201EE0B04201D120201AE07C
:101AB000B84201D1184616E012494431884202D199
:101AC000012040030FE00F495831884202D1012024
:101AD000400408E00B496C31884202D101204005E6
:101AE00001E00120400607494860E06BE063012007
:101AF000687100202871E16A002901D020468847DA
:101B0000F8BD00000000024070B5002805D0034673
:101B100020335979002902D003E0012070BD002153
:101B2000197102215971046822683749C5680A4051
:101B300081684669294305693543294385692943F5
:101B4000C5692943056A2943114321602F492F4C58
:101B500002687831A24206D18A6A120912018A62A9
:101B60008A6A406849E0294C1434A24207D18A6A43
:101B7000F024A2438A628A6A406800013DE0234C57
:101B80002834A24208D18A6A0F242402A2438A621E
:101B90008A6A4068000230E01C4C3C34A24208D102
:101BA0008A6A0F242403A2438A628A6A4068000377
:101BB00023E0164C5034A24208D18A6A0F24240430
:101BC000A2438A628A6A8088000416E00F4C64345B
:101BD000A24208D18A6A0F242405A2438A628A6A33
:101BE0008088000509E08A4209D18A6A0F24240608
:101BF000A2438A628A6A0079000602438A6201204F
:101C00005871002070BD00000FC0FFFF08000240A7
:101C1000F8B5044620300579012D1ED00125057147
:101C20000226467120680768AF4307602046FFF729
:101C300051F920680168314301602068016804227D
:101C40001143016020680168082211430160206887
:101C50000168294301600020F8BD0220F8BD01B5EC
:101C60000098FFF746F908BD70B5074D04462846B1
:101C7000FFF79CFB002805D10449486120602846F5
:101C8000FFF794FB70BD000050C30000C4020020A9
:101C90000348416801221143416000207047000061
:101CA00000200240F8B5124D0746287C14460E4627
:101CB000012807D0012028740E48FFF777FB002881
:101CC00002D00CE00220F8BD00216961022F09D08A
:101CD000012F09D0002F09D00648FFF767FB00212C
:101CE0002974F8BD3460FAE73480F8E73470F6E719
:101CF000C402002050C3000005484168C90705D050
:101D00000449C1600449C160002070470120704748
:101D100000200240EFCDAB890504030210B501F0AD
:101D2000DFFF10BD10B504494A69024202D0486184
:101D3000FFF7F4FF10BD000000040140F8B50023D8
:101D40000124A7E027469F403A4070D04D68022DFD
:101D500001D0122D14D1DD08AD002D1800952D6A8B
:101D60005E07AC46F50E0F26AE46AE406546B5435F
:101D7000AC460E697546AE4065462E43009D2E6208
:101D80004D68012D05D0022D03D0112D01D0122D4B
:101D900016D185680326AC465D00AE46AE4065466A
:101DA000B543AC46CE687546AE4065462E43866068
:101DB00046680D79BE43ED06ED0F9D403543456005
:101DC00006685F000325BD40AE46AE430D79B446BC
:101DD000AE07B60FBE4065462E430660C668754620
:101DE000AE438D68BD403543C5604D68ED0050D5AC
:101DF0002B4D6E6B26436E639E082A4DB6007519F7
:101E0000AC46AD689E07360F0F27B740BD43052788
:101E10003F07B84201D100271AE0234FB84201D151
:101E2000012715E0214FB84202D1022710E030E02F
:101E30001F4FB84201D103270AE01E4FB84201D11B
:101E4000042705E01C4FB84201D1052700E0062712
:101E5000B7402F436546AF60184D2E684F689643D4
:101E6000FF0300D516432E606E684F689643BF038C
:101E700000D516436E60AE684F689643FF0200D5EA
:101E80001643AE60EE684F689643BF0200D5164316
:101E9000EE605B1C0A681546DD4000D052E7F8BDD5
:101EA00000100240000001400004005000080050F3
:101EB000000C005000100050001C005000040140B5
:101EC0000069084000D00120704742694A404261E1
:101ED0007047002A01D0816170478162704700001D
:101EE00001480068704700005000002070B50400F1
:101EF0000FD021681348086021681348086003CC9C
:101F000041602068083C21688860FFF7E9FF0546CA
:101F100008E0012070BDFFF7E3FF401B302801D926
:101F2000032070BD2068C0680028F4D120680269D1
:101F3000E1688A4201D0016101E0044901600020AA
:101F400070BD0000CCCC000055550000AAAA0000CE
:101F5000006802490160002070470000AAAA000042
:101F600002480168491C01607047000050000020D1
:101F700010B506480168022211430160032000F0F9
:101F800007F800F007F8002010BD00000020024014
:101F90000020704710B50848816B0204114381632B
:101FA00000F02CF800F022F80448016808221143E0
:101FB000016000F013F810BD001002400020024044
:101FC000C106C90E01208840014908607047000021
:101FD00000E100E010B502F09DF910BD0248016873
:101FE000021511430160704700700040024801680B
:101FF00042151143016070470070004002480168BB
:10200000102291430160704700700040F8B56649A6
:10201000074601250020ED03624B634A4031102F33
:102020006FD011DC012F77D0022F6CD0042F6BD032
:10203000082F24D1C9680324240321407BD0BD028A
:102040006C10A9427CD0A0E00326584C3604202F07
:102050000BD0402F35D0FF3F012F10D1C968314040
:1020600069D07C04A1426BD096E00B690969012715
:1020700031403F04B94203D1990559E02846F8BDE3
:1020800001256D04A94203D19907F8D54848F8BD48
:10209000B142FCD111688903F9D51168032000050C
:1020A000014001200005091A09D0091A05D0814212
:1020B00001D14048F8BD2046F8BD3F48F8BD3F4833
:1020C000F8BDC9680125AD06294006D0A942F7D15F
:1020D00091688907F4D53A48F8BD11688901FBD5A4
:1020E000D068D1688002374D000F2D5C0802810F47
:1020F000D068491CC0030AD41068C00605D5204624
:1021000006E045E008E023E030E0184600E02E4815
:102110006843FDF7EDFFF8BDCC68A407A40F0CD011
:10212000022C0DD0012C10D0032CF4D109698905A3
:102130000029A3DBF8BD16E002E000F0D1F9F9E7D1
:1021400011684907F6D51846F4E700F0D9F9F1E728
:10215000CC680C26344006D0082CF1D0042CF4D0E6
:102160000C2CE3D0E6E700F0ABF9E3E7CC680326FC
:10217000B6023440F7D00127FF02BC42E0D07A100B
:102180009442E2D0B442D1D0D4E7A142DDD0D1E72D
:10219000916B4902E7D4CDE7012212049142D4D0D9
:1021A000C8E700000024F4000010024000093D00D0
:1021B0008890000020A1070040420F0080841E008C
:1021C000006CDC02C48D000800127A00F8B50446E9
:1021D00000785E4D800672D55C4E0027403EB06BA5
:1021E000C00004D4B06BA9050843B0630127584868
:1021F0000168C90511D40168821511430160FFF718
:102200006FFE009005E0FFF76BFE0099401A64280E
:1022100037D84F480068C005F5D532680321090555
:1022200060680A400140914208D08103890F032968
:1022300004D13168890301D50120F8BD2A69032141
:1022400009040A4022D0084090421FD0207880061E
:102250001CD528692A6988430121C9040A432A61D7
:102260002A698A432A612861C0050FD5FFF738FE25
:10227000009008E0FFF734FE0099411A354881428A
:1022800001D90320F8BD28698005F3D5616888036A
:10229000800F032805D132680005824301400A43BC
:1022A00032602869032261681204114008432861E2
:1022B000002F04D0B06B012109078843B063207858
:1022C000C00705D0E868A168800880000843E8607E
:1022D0002078800705D5E8680C218843E168084329
:1022E000E8602078400706D5E86803218902884322
:1022F00021690843E8602078000706D5E8680321D3
:102300000903884361690843E8602088C00506D551
:10231000E868032109048843A1690843E86020783C
:10232000400606D5E868012189068843216A0843EA
:10233000E8602078000606D5E86803218904884310
:10234000E1690843E8600020F8BD00004010024049
:102350000070004088130000F8B5054653480E464B
:102360000068C007C00FB0420AD25048016849084F
:102370004900314301600068C007C00FB0426FD10F
:1023800028784B4C800705D5E068F0218843A96880
:102390000843E0602878C00752D06868022817D048
:1023A000032818D02168012818D08905002957DA98
:1023B000E168890889000143E160FFF791FD6968E0
:1023C0000746022912D003291CD0012926D033E068
:1023D00021688903EAE721688901E7E74907E5E71A
:1023E000FFF77EFDC11B3348814223D8E068000718
:1023F000800F0228F4D123E0FFF772FDC11B2D48A6
:10240000814217D8E0680007800F0328F4D117E055
:10241000FFF766FDC11B274881420BD8E068000723
:10242000800F0128F4D10BE0FFF75AFDC11B2148B2
:10243000814201D90320F8BDE0680007800FF3D185
:102440001A480168C907C90FB1420BD90168490888
:102450004900314301600068C007C00FB04201D09D
:102460000120F8BD2878400706D5E0680721090259
:102470008843E9680843E0602878000707D5E068EA
:102480000721C90288432969C9000843E06000F0B8
:1024900037F8E168084A0906090F515CC840074946
:1024A00008600320FFF774FD0020F8BD0020024003
:1024B0000010024088130000B48D00084C0000207A
:1024C000044805490068C968044A4905490F515C38
:1024D000C84070474C00002000100240CD8D00081D
:1024E000044805490068C968044A8904490F515CD9
:1024F000C84070474C00002000100240CD8D0008FD
:1025000010B5184AD1680C20084004280BD00828C0
:1025100010D00C2810D050680004410F0120C003D7
:10252000491C884010BD1068C00601D50E4810BD7A
:102530000E4810BD0E4810BD88020E4B000F185CEF
:102540000902D368890F491CDB0301D5084A05E05D
:102550001268D20601D5044A00E0044A5043FDF750
:10256000C7FD10BD0010024000093D000024F4002A
:1025700000127A00C48D0008F8B504460078FF4DBB
:10258000C0074CD0E8680007800F022807D0E86831
:102590000007800F032809D1E868C00306D5286822
:1025A00080033CD56068002875D038E0012062685F
:1025B0000004824203D129680143296011E0052308
:1025C00001211B0489049A422A6802D10A432A6025
:1025D000F1E782432A602A68024000922868884313
:1025E0002860606800280DD0FFF77AFC0646E44FAB
:1025F00004E0FFF775FC801BB8427DD82868800393
:10260000F7D50CE0FFF76CFC0646DD4F04E0FFF762
:1026100067FC801BB842F0D828688003F7D4207884
:10262000800741D5E8681F270007800F3F02012877
:1026300007D0E8680007800F032809D1E868C003C5
:1026400006D42868400717D5E068012823D113E095
:10265000E068002817D029680922914301432960C6
:10266000FFF73EFC064604E0FFF73AFC801B022819
:10267000C3D828684007F7D568682169B8430902BC
:102680000843686010E02868400840002860FFF7B1
:1026900027FC064605E090E0FFF722FC801B02289D
:1026A000ABD828684007F7D42078C00676D5E8680C
:1026B000B44E0007800F0BD0E06900285DD0286879
:1026C000FF21013108432860FFF70AFC074644E078
:1026D0002868800502D5E06900286ED0606A6968C4
:1026E0003140884212D901F0CDFE0028AED1686891
:1026F000616AB043084300E0E4E068606868218CE8
:102700000002000A0906084368600FE06968B143E7
:10271000014369606868218C0002000A09060843C9
:102720006860606A01F0AEFE00288FD1606A410BDC
:102730000120C003491C8840E968934A0906090F33
:10274000515CC840914908600320FFF721FC25E057
:10275000FFF7C6FBC01B02288AD828688005F7D57A
:102760006868616AB043084368606868218C000249
:10277000000A09060843686010E02968FF2001305C
:1027800081432960FFF7ACFB064604E0FFF7A8FB96
:10279000801B022884D828688005F7D420787C4ED6
:1027A000000723D560690028306910D00121084353
:1027B0003061FFF795FB074605E009E1FFF790FB65
:1027C000C01B02287ED830698007F7D50EE040088C
:1027D00040003061FFF784FB074604E0FFF780FB11
:1027E000C01B02286ED830698007F7D420784007D4
:1027F00061D5A86B0027C00005D4A86B012109078B
:102800000843A863012763480168C90511D401681A
:10281000821511430160FFF763FB009005E0FFF7AD
:102820005FFB0099401A64284CD85A480068C005DC
:10283000F5D5FF20A2680130824203D131690143FE
:10284000316111E001218902002A07D005231B0212
:102850009A4203D132690A433261EFE73269824317
:102860003261306988433061A06800280ED0FFF7DC
:1028700037FB009006E0FFF733FB0099411A404810
:1028800081421FD830698005F5D50DE0FFF728FBA0
:10289000009006E0FFF724FB0099411A3848814276
:1028A00010D830698005F5D4002F04D0A96B012021
:1028B00000078143A9632078800630D53649A06996
:1028C0004A1400E07DE0002816D0AB6801200343E5
:1028D000AB606B6B03436B63086A10430862FFF7DE
:1028E000FFFA064604E0FFF7FBFA801B022868D8CF
:1028F000A8688007F7D512E0A86840084000A860E3
:10290000086A90430862FFF7EBFA064604E0FFF717
:10291000E7FA801B022854D8A8688007F7D4A06A79
:10292000002853D0E9680907890F032950D00126F0
:1029300036060228286805D0B0432860FFF7D0FA91
:10294000044640E0B0432860FFF7CAFA074604E0B7
:10295000FFF7C6FAC01B022833D828688001F7D4D5
:10296000216BE06AEA680843616BFD231B049A430C
:1029700011430843E860286830430FE0001002402C
:102980008813000000E00000B48D00084C00002017
:102990004010024000700040000001402860FFF736
:1029A0009FFA044604E0FFF79BFA001B022808D8B0
:1029B00028688001F7D509E0FFF792FA001B02288A
:1029C00001D90320F8BD28688001F5D40020F8BDA6
:1029D0000120F8BD30B5014620310A78012A15D012
:1029E00001220A7002234B700468CA2363620468E0
:1029F0005323636203689C6820252C439C60006815
:102A0000FF2343624A700020087030BD022030BDB1
:102A100010B503F0DDFC10BDF8B5054604462035C1
:102A2000287801281DD001202870022068702268B3
:102A3000CA205062226853205062FF2001300026D5
:102A4000FF2781421CD121688A6882438A602068FE
:102A500081680122120391438160FFF741FA0090DF
:102A600009E00220F8BDFFF73BFA0099411A7D20EA
:102A7000C00081421BD82068C068C007F3D020E0A6
:102A80002068816801225202914381602068816838
:102A9000120191438160FFF723FA00900DE0FFF7E8
:102AA0001FFA0099411A7D20C000814205D9206893
:102AB0004762032068702E70F8BD2068C0688007E8
:102AC000EDD520684762012068702E700020F8BDA7
:102AD00010B500680B464068C021C94301400002A0
:102AE000000ECC04D870E40E5C708C06A40E0904B1
:102AF000490F9C701970002A0AD101F0FFFCD870B0
:102B0000587801F0FBFC5870987801F0F7FC987049
:102B1000002010BD30B50B460168896A5960016814
:102B200009694904490C9960006804680F48214606
:102B3000014088024D04800E18706D0E49065D70CC
:102B4000490E99706102490E40242140D970002A33
:102B50000AD101F0D3FC1870587801F0CFFC5870FE
:102B6000987801F0CBFC9870002030BD7F7F7F000B
:102B700070B5040005D0254620356878002802D0BD
:102B800006E0012070BD00202870204600F042F8C9
:102B9000022068702168CA20486221685320486278
:102BA000204601F0BEFCFF210028206803D04162CE
:102BB00004206870E5E78268154B1A40826022683D
:102BC00090686368A669184323693343184390608B
:102BD0002268E06810612068026923891B041A4397
:102BE00002612068C26880239A43C2602068C26C78
:102BF00092089200C264E269606902432068C36C73
:102C00001A43C2642068416201206870002070BDD0
:102C1000BFFF8FFF00B597B00420009000200A90FE
:102C2000FF20013002906846FFF7A6FC002801D083
:102C3000FEF772FB20200E90C0020F900EA8FFF747
:102C4000C5FA002801D0FEF767FB08480169012298
:102C5000920411430161002211460220FFF7BAF9E4
:102C60000220FFF7ADF917B000BD00004010024090
:102C7000FEB506460446203630780B46012842D081
:102C8000012030700220707020681D46002720351A
:102C90008068002A39D0400655D5187801F02EFCFE
:102CA000287801F02BFC19789878090408435978A2
:102CB000DA78090212041143084329780906084307
:102CC000D969084359690843054699695868084312
:102CD00000902168CA204862216853204862FF2082
:102CE0005A6A0130802182424AD122689368834324
:102CF00093602268D0680840FF388238D060FFF7C0
:102D0000EFF8019029E00220FEBD400600D4DF70FC
:102D1000187801F0FBFB0204587801F0F7FB000281
:102D20000243987801F0F2FB0243D8780004024392
:102D3000287801F0EBFB00060243D869024358698A
:102D400002431546C1E7DF70AAE7FFF7C9F801990A
:102D5000411A7D20C00081422AD82068C068C0077F
:102D6000F3D02068C56121680098486420688168B4
:102D7000FF2201321143816020688168120130E036
:102D80002068826801235B029A4382602068C268DF
:102D90000A401D495118C160FFF7A2F801900EE0EA
:102DA000FFF79EF80199411A7D20C000814206D9A3
:102DB0002168FF204862032070703770FEBD2068D4
:102DC000C0688007ECD52068056221680098886497
:102DD0002068816801225202114381602068816865
:102DE00012011143816009480268012149040A4324
:102DF000026082680A4382602168FF2048620120E5
:102E0000707037700020FEBD7FFDFFFF00040140A1
:102E1000F8B505460446203528780B46012815D01C
:102E200001202870022068705878002A10D001F024
:102E300065FB987801F062FBD8789E780004064321
:102E40005878197800024903084316E00220F8BDBB
:102E5000C10603D5EF2108400A305870D87801F038
:102E600055FB0604587801F051FB000206439878A0
:102E700001F04CFB06431878400306432168CA2042
:102E80004862216853204862204601F04AFB00272F
:102E9000002811D110480640206846602068C168AB
:102EA00080229143C1602068806880060CD420464F
:102EB00000F08CF8002807D02168FF204862042029
:102EC00068702F700120F8BD2168FF204862012042
:102ED00068702F700020F8BD3FFFFF00F8B5064670
:102EE0000446203630780D4601280ED0012030707F
:102EF00002207070206800278068002A07D04006F2
:102F00001AD5287801F0FAFA17E00220F8BD400639
:102F100000D4EF70287801F0F9FA0204687801F023
:102F2000F5FA00020243A87801F0F0FA0243E878CB
:102F30000004024300920BE0EF702978A87809049E
:102F400008436978EA7809021204114308430090A3
:102F50002168CA204862216853204862204601F057
:102F6000E0FA00281FD1184900980840216808603D
:102F70002068816801229204914381602969E86890
:102F8000084321688A68104388602068C1688022ED
:102F90009143C1602068806880060CD4204600F010
:102FA00015F8002807D02168FF20486204207070BF
:102FB00037700120F8BD2168FF2048620120707041
:102FC00037700020F8BD00007F7F7F0070B5044699
:102FD0000068C168A0229143C160FEF781FF7D2691
:102FE0000546F60006E0FEF77BFF401BB04201D924
:102FF000032070BD2068C0688006F4D5002070BD35
:1030000070B5040006D025464035687C00260028AF
:1030100002D005E0012070BD2E74204600F032F889
:103020000220687420680168402291430160A16811
:10303000606822690843E16811430843616901221D
:103040000843A169520211400843E1690843216A1B
:103050000843A16A084321680860A0690421000CA4
:103060000840616A0843216848602168E06A086195
:103070002068C16992009143C1616665012068744E
:10308000002070BD7047F8B50446002768460780E9
:1030900026464036707C012802D0707C22287ED1E2
:1030A00000290CD0002A0AD0002B08D0307C01283F
:1030B00075D001203074707C012802D003E001201B
:1030C000F8BD322070746765A263A387E38721632C
:1030D000A386E386A764E7640125A06A6D03A8427E
:1030E00007D120680168A94301602068016829436D
:1030F000016020680168490603D401684022114339
:1031000001600121FF20E268C90205308A4261683E
:1031100066D1002904D081420CD1E08E012809D16A
:10312000206B21680088C860206B801C2063E08EC3
:10313000401EE086E08E002843D1A06AA84246D116
:103140002068016801221203114301603FE02068FA
:10315000C068A16B0880A06B801CA063B0E0002257
:1031600002212046069B01F08DFB00287DD1206BBB
:1031700021680088C860206B801C2063E08E401EA0
:10318000E086E08E002808D1A06AA84205D1206818
:1031900001680122120311430160002200E0CCE02B
:1031A00001212046069B01F06DFB00287FD120689D
:1031B000C068A16B0880A06B801CA063E08F401EDC
:1031C000E087E08E0028CAD1606800287BD1002209
:1031D00001212046069B01F055FB002867D1B6E788
:1031E000002904D081420BD1E08E012808D1206B48
:1031F000411C216321680078C860E08E401EE08693
:10320000E08E002845D1A06AA84205D12068016857
:103210000122120311430160002201212046069B76
:1032200001F030FB002842D12068C068A16B087013
:1032300046E0002202212046069B01F023FB0028E5
:1032400035D1206B411C216321680078C860E08E75
:10325000401EE086E08E00280AD1A06AA84207D16D
:10326000206802680121090300E020E00A430260AF
:10327000002201212046069B01F004FB002816D104
:103280002068C268A06B411CA1630270E08F401EE1
:10329000E087E08E0028CCD16068002813D100229E
:1032A00001212046069B01F0EDFA002802D0032000
:1032B000F8BD08E02068C168A06B421CA2630170E1
:1032C000E08F401EE087A06AA8420FD100220121B2
:1032D0002046069B01F0D6FA002802D0606D02213C
:1032E0000EE02068C06869460880088801228021B5
:1032F0002046069B01F0C6FA002804D0606D20210C
:1033000008436065D3E701207074A06AA84211D118
:1033100020688168C943C9060CD4616D022211433B
:1033200061650168A9430160206801682943016063
:103330003774C4E637740020BAE70220B8E70246C3
:103340002032137D012B07D001231375006801651E
:1033500053750020107570470220704710B500218A
:103360000F4800F0DBF90F4CA268214653005B18B0
:10337000521CA2601880A06802280FD34A880888CF
:103380000021C943081A401C101881B20648006881
:10339000FCF7AEFE60606068C000606010BD0000B9
:1033A0008C020020240000204C000020F8B50646C6
:1033B00004462036307D0D4601283DD00120307571
:1033C00002207075002A39D0042A46D0082A57D026
:1033D0002B68297B20689E468C466B68016A012217
:1033E000120391430162C169026A03273F02B94394
:1033F0001B020B430F2109038B4361460907090C8C
:10340000194305235B039A4373460A273B401B037A
:103410001343C16103622068C16903229202914390
:10342000C1612068C169AA6812021143C16101200B
:10343000707500203075F8BD0220F8BDEB6806CD30
:10344000083D206802F054FF206882690C218A43FD
:10345000826120688169AA680FE0EB6806CD083DAB
:10346000206802F073FF20688269032189028A4381
:10347000826120688169AA68120211438161D6E7DE
:1034800088CD287921688446086AFF22013290435A
:103490000862C8690A6A800880003843F027B84388
:1034A00067463F073F0E07430520400282430A203C
:1034B000034018021043CF6108622068C1690C22E2
:1034C0009143C1612068C1692A68AEE710B5022145
:1034D00004462034617501680A6A064B1A4203D11A
:1034E0000A68520852000A6000F020F80020607557
:1034F000207510BD1111000070B5040005D02546DF
:103500002035687D002802D006E0012070BD002033
:103510002875204600F00CF802206875211D2068EF
:1035200002F0AAFE01206875002070BD70470000FF
:1035300010B50748416B0422114341630022042166
:103540001420FEF747FD1420FEF73AFD10BD0000E1
:103550000010024010B502680446002906D0042974
:1035600007D0082914D00C2907D114E0D068022311
:1035700001E0D06804231843D0600122206802F0E3
:10358000ABFE20680168012211430160002010BDDC
:10359000D0680823EFE7D0681023ECE710B5026885
:1035A0000446002906D0042907D0082918D00C2980
:1035B00007D118E0D068022301E0D06804239843C3
:1035C000D0600022206802F087FE2068016A074A66
:1035D000114203D10168490849000160002010BD73
:1035E000D0680823EBE7D0681023E8E7111100004A
:1035F00070B50446006801690025C94389070029A0
:1036000015DBC168C943890711D4E91E0161012096
:103610002075206880698007204602D0FFF79EFE53
:1036200004E000F078F8204600F076F82575206870
:103630000169C943490717D4C168C943490713D46D
:103640000421C9430161022020752068806980053A
:10365000800F204602D0FFF781FE04E000F05BF807
:10366000204600F059F8257520680169C94309070B
:1036700016D4C168C943090712D40821C94301619E
:10368000042020752068C0698007204602D0FFF71B
:1036900065FE04E000F03FF8204600F03DF8257597
:1036A00020680169C943C90617D4C168C943C9065E
:1036B00013D41021C9430161082020752068C06916
:1036C0008005800F204602D0FFF748FE04E000F09E
:1036D00022F8204600F020F8257520680169C943CA
:1036E000C90708D1C168C943C90704D1891E01614E
:1036F000204600F012F820680169C943490609D440
:10370000C168C943490605D44021C9430161204627
:1037100000F027F870BD70477047704710B503463A
:1037200020331C7D0022012C0AD001241C750029A5
:1037300008D0042909D008290AD00C290DD10AE0A3
:10374000022010BD0068426B07E00068826B04E055
:103750000068C26B01E00068026C0020187510461A
:1037600010BD7047014660310A7A012A0DD001224E
:103770000A7224224A720068026802231A43026015
:103780002020487200200872704702207047000015
:10379000FEB5054604466035287A00269446012881
:1037A00011D001232B7224206872206802689A438A
:1037B00002602768B8680322120590430843B86086
:1037C000002902D015E00220FEBD60460091019064
:1037D00021686A46928848681027B84310434860B9
:1037E000206841686A4609029279090A1206114363
:1037F00041602068016819430160FEF771FB0949C7
:1038000000910346012100228905204603F0ABF90F
:10381000002801D0032601E02020687200202872D1
:103820003046FEBDFFFFFF0170477047F8B50268E4
:103830000446D06911680607360F07D1830605D5FF
:103840008B0603D5204603F003F8F8BD95682023C6
:10385000002E65D0EE07F60FFF2721370F403743C4
:103860005ED0C70706D0CF0504D501271762E26EE8
:103870003A43E266820708D5EA0706D027680222A3
:103880003A62E26E04273A43E266420708D5EA0745
:1038900006D0256804222A62E26E02252A43E266E7
:1038A000020709D50A461A40324305D02368082288
:1038B0001A62E36E1343E366E26E002AC5D0800607
:1038C00004D5880602D5204602F0C2FFE06E00074C
:1038D00003D42068806840061CD5204602F0A0FF73
:1038E00020688168490611D5826840218A43826038
:1038F000606E00280AD01D498163606EFDF778FF75
:103900000028A2D0606E816B8847F8BD2046FFF783
:103910008CFFF8BD2046FFF788FF0020E066F8BD69
:103920002646C7026036002F0ADA6D0208D501204C
:10393000000510627372B3722046FFF775FFF8BD81
:10394000050605D50D0603D5204603F0D9F8F8BDC8
:103950004006FCD54806FAD52046146840218C4321
:103960001460737200F03EF9F8BD0000896700082A
:1039700070B5040005D025466035687A002802D06D
:1039800006E0012070BD00202872204600F026F8D5
:103990002420687220680168490849000160606A53
:1039A000002802D0204602F059FE204602F090FF87
:1039B0000128E7D0206841680922D2029143416082
:1039C000206881682A229143816020680168012271
:1039D00011430160204602F0A7FE70BD70B5264C71
:1039E0000546E06A8AB001263043E062E06A304072
:1039F0000990E06A3043E062E06A30400990A06BD1
:103A0000B1040843A06324216846FCF70DFC0420A0
:103A10000090400204906846FEF7D8FB206B3043CC
:103A20002063206B3040099005F0D0F8144C134807
:103A3000206000211020E160A0606161A161E1616E
:103A4000802021622061052060602046FEF75CF83E
:103A50002C66012211460B20A562FEF7BBFA0B2053
:103A6000FEF7AEFA012211461D20FEF7B3FA1D2023
:103A7000FEF7A6FA0AB070BD0010024080000240B6
:103A8000BC070020F0B5034660339C7A202C44D15B
:103A900000290BD0002A09D0012584682D03AC42EF
:103AA00006D10669002E03D1CE0701D00120F0BD5A
:103AB0001E7A012E31D001261E7241650146403129
:103AC0000A834A83FF27AC4204D10269002A12D13B
:103AD000134A0EE07F22002C08D001252D07AC42AE
:103AE0000AD10469002C04D03F2202E00469002CB2
:103AF00001D08A8300E08F830021C16622229A725E
:103B0000197201688A6832438A6000680168FF227E
:103B10002132114301600020F0BD0220F0BD000001
:103B2000FF01000010B5044607488168002904D051
:103B3000E06E002801D1044888470122024920464E
:103B4000FFF7A0FF10BD000088000020F8B5054673
:103B500004466035687A20283BD100290BD0002A22
:103B600009D00123A0681B03984206D120690028D0
:103B700003D1C80701D00120F8BD287A012828D038
:103B80000120287220464030E164028242820026F1
:103B9000E66621206872216E0F48C862216E0F48C8
:103BA0000863216E0E484863206E134686632768BB
:103BB000E16C3A462832206EFEF72AF82168402050
:103BC00008622E7220688168802211438160002083
:103BD000F8BD0220F8BD0000E7670008176800087C
:103BE0009D67000802484068002800D000477047E1
:103BF000880000207047000010B5124801780029A5
:103C00001ED10122027011480F4901600021016498
:103C1000C161D3078161436082638160C1600162D9
:103C200007234162C3630261C162042242610163EE
:103C30000748416B4215114341630448FDF7DCFC22
:103C400010BD000080000020002401403407002047
:103C500000100240014600200A0A00D00820084A4D
:103C6000114201D004221043064A114201D002221F
:103C70001043054A114201D001210843704700005A
:103C8000F0F00000CCCC0000AAAA000038B50B234D
:103C90001B07C518114B0FD01C152D1B18D02D1B41
:103CA00019D0A542DD6A05D108242543DD62DB6A0F
:103CB000234007E08024F8E7DC6A01252C43DC621E
:103CC000DB6A2B40009311601146FEF737F838BDD0
:103CD000DD6A0224E9E7DD6A0424E6E70010024019
:103CE00010B5FFF7B7FF810002484058002800D008
:103CF000804710BDDC02002070B51C4615460E46FC
:103D00000846FFF7A7FF0A49002C0DD080000C5091
:103D1000304600F0E5FA044600222946FEF75AF93B
:103D20002046FEF74DF970BD002280000A5070BD9C
:103D3000DC02002010B5D2B2FEF7CBF810BD0000B7
:103D400010B5094C607800280CD1FFF755FF0748E3
:103D50000068804700F0DAF900F08EF802F004FC09
:103D60000120607010BD0000800000204C8D000814
:103D700070B5410EC0017D220023FCF7CFF9054646
:103D800000F072F8044600E000BF00F06DF8001B80
:103D9000A842F9D370BD000070B505460C4600225C
:103DA0002048FEF7B7FE002229461E486668FEF747
:103DB0008FFE002221461B48FEF7ACFE6068B04231
:103DC000F1D1E878184A01465043C01C830888079F
:103DD00026D0164968783D220646504302463C3AB2
:103DE0007000801EC1408807D10F8918800F4910CC
:103DF000081AC018A978401E08180D493C224843EB
:103E00006178E123514322781B015A438918A27833
:103E100010180818074A61688002511A401870BDCE
:103E20000549D7E71C030020B5050000A0AA9900AA
:103E300080510100FF0300005055440003207047EB
:103E400001480068704700006803002000B587B093
:103E5000694605A8FFF7A0FF0249096807B0401AA4
:103E600000BD00006803002000B587B0694605A8C2
:103E7000FFF792FF07B000BD10B5084C207800286E
:103E80000AD100F04BF8FF2101310548FEF7C4FDCF
:103E900000F074F80120207010BD000054000020D4
:103EA0001C03002010B50C4C0021042000F0F0F998
:103EB00021688868C0040ED5C868C0050BD5C868DD
:103EC00080221040FF388238C8600449900248615F
:103ED0002046FEF79DFD10BD1C030020000401409C
:103EE00070B50446FFF7B2FF211A0B4D0220285E81
:103EF000C01C814201D9002100E00121042000F012
:103F0000C7F900F0B1F9012802D10220285E241A75
:103F1000204600F03FF870BD5400002010B5144951
:103F2000144886B0002412C01F210160846004611F
:103F30001149446141600838FEF71AFE6946CC75A4
:103F40000120487588750875002205A90948FEF703
:103F50005FFF00940194049400226946054803948D
:103F6000FEF7BCFF0348FEF735FD06B010BD0000AC
:103F7000002800401C030020FF03000010B5044C83
:103F80002046211D1830FFF707FF206010BD0000FC
:103F900068030020F0B587B0044614223F4901A809
:103FA000FCF729F93D485038406E009000F07EF84B
:103FB0003B4802993B4A401AA105890D081887B26F
:103FC000A10A68468078534202E08918401C80B2FA
:103FD0009942FAD26A461579E122120102E0891A61
:103FE0006D1CADB29142FAD26A46547902E0641C6B
:103FF000A4B23C393C29FAD2927951188EB20121EF
:10400000890203E07A1A761C97B2B6B28F42F9D2CF
:1040100003E03C3E641CB6B2A4B23C2EF9D203E0ED
:104020003C3C6D1CA4B2ADB23C2CF9D203E0183D6F
:10403000401CADB280B2182DF9D26946C978890703
:1040400069464A7827D01849491E515C814202D2FC
:10405000FCF74EF808461249CA1B10492C394A6031
:10406000052252068A618E704C700A460D7020320D
:1040700010706846C079C8700020C861FF2248618E
:104080000132C8604A620861024608462438FEF7D9
:10409000EFFD07B0F0BD04490C31D5E76C030020FB
:1040A000FF03000080AEFEFFD58D000810B5064866
:1040B0000168C86880221040FF388238C86051000B
:1040C0000148FEF7A9FC10BD1C03002010B57D219E
:1040D00002F0A7FD4906C009084310BD10B5410E06
:1040E000C0017D220023FCF719F810BD01B582B094
:1040F0000020C0430090012301AA02A90248FEF754
:10410000C2FF684680880EBD8403002010B51C489D
:104110001A4901601C4A1B4B0021126803E0520837
:10412000491C072901D29A42F9D84A078B07D20FB6
:10413000DB0F52011B011A43C90700D008210A43B3
:10414000C2610021816001614161FF22C1600532CD
:1041500081624260012201625202826141620B4827
:10416000416B8214114341630548FEF749FF002863
:1041700001D0FDF7D1F800F00BF810BD0030014080
:1041800084030020809698004C000020001002401C
:1041900030B585B014216846FCF746F8022001903E
:1041A00002900320039000200524240704906A460F
:1041B00020212046FFF76AFD6A4640212046FFF78E
:1041C00065FD6A4680212046FFF760FD01210191CF
:1041D000CD0302916A4629462046FFF757FD01228A
:1041E00029462046FFF7A6FD05B030BD00BFFDE71C
:1041F00010B50448FDF7ACFE002801D0FDF78CF89F
:1042000010BD00007C02002070B58CB014216846FF
:10421000FCF70AF8124CE16A02200143E162E16A0C
:10422000012501400A91002610206A4661C26946B4
:104230000C48FDF783FD142105A8FBF7F5FFE06AA4
:104240002843E062E06A05A928400A90E01461C1B1
:10425000052000070C39FDF771FD0CB070BD0000A2
:104260000010024000040050EFF3108172B60748BE
:104270000268002A01D0002005E04068002801D033
:10428000012000E0022081F310887047C800002060
:1042900010B5EFF3108272B6064B00291C6803D0EC
:1042A000012903D1044300E084431C6082F3108899
:1042B00010BD0000C800002010B50249024802F0FD
:1042C00071F810BD214400089407002010B5024980
:1042D000024802F067F810BD51440008A80700200A
:1042E000FF220132811A90420CD009DC08280DD03F
:1042F00008DC012808D0022806D0042802D105E0F5
:104300000F221202072070470520704706207047D1
:10431000704700008307FF22DB0E9A408907090ED1
:10432000994000280BDA0007000F08388308084876
:104330009B001818C36993430B43C36170478308FC
:1043400004489B001B181868904308431860704786
:1043500000ED00E000E400E0BFF34F8F04490348A4
:10436000C860BFF34F8F00BFFDE700000400FA05EF
:1043700000ED00E010B5114CA07A401CC0B2A07254
:10438000052805D30E4802F0BFF80020A07210BD2A
:104390000C480D490078097808430CD00B490848AF
:1043A00002F068F8064802F077F8A069401EA061A4
:1043B0000120E07010BD0649F1E700005800002020
:1043C0000C0700209F000020A00000203075000096
:1043D0007017000010B50549054802F04BF8044875
:1043E00002F05AF803490120487110BD5046000000
:1043F000200700205800002010B506480168064834
:1044000002F038F8044802F047F804490120C87067
:1044100010BD0000BC000020F8060020580000205D
:1044200010B5094802F070F8012105204902000783
:10443000FDF746FD05490A79904201D10120087037
:104440000020887010BD000094070020820000202A
:1044500010B5084802F058F8012109030648FDF795
:104460002FFD06494A79904201D101204870002071
:10447000C87010BDA8070020000400508200002072
:104480007047000070B517490023CA681206120F62
:1044900018D18A6B154CD500134A02D512682240F8
:1044A00009E08E6B01252D072E438E6312688E6BFB
:1044B0002240AE438E63A24204D103218903884285
:1044C00000D101230A4801684908490019430160E5
:1044D0000068C007C00F984201D0012070BD0020C5
:1044E00070BD000000100240007000400018000085
:1044F0000020024010B504F043FB10BD01090A2260
:1045000000075143000F4018C0B27047002102E07D
:104510000A38C0B2491C0A28FAD20907090E084312
:10452000704770B504460068C168490613D400217D
:10453000C943C160FDF7D4FC7D260546F60006E0C0
:10454000FDF7CEFC401BB04201D9032070BD2068AE
:10455000C0684006F4D5002070BD10B5FFF7A2FC7E
:1045600010BD000070B5092000F0B3FE054606201E
:1045700000F0AFFE0404072000F0ABFE000204438D
:10458000082000F0A6FE0443200A0102184A611A1E
:10459000514380315043090A46180021092001F097
:1045A000E5FC3B2000F095FE4024204301463B20E3
:1045B00001F0DCFC3B2000F08CFE8006FAD40D48B4
:1045C00000F0AAFF3B2000F084FE204301463B2080
:1045D00001F0CCFC3B2000F07CFE8006FAD429469A
:1045E000092001F0C3FC304600F096FF70BD0000CA
:1045F000093D000000A1BC33F8B501260024F602F5
:10460000FF2705462D37052031460007FDF75DFCE5
:104610003846FDF724FB641C022CF4DB2879844E19
:10462000844C09281CD128688178002918D0824A36
:104630003078127800271043002804D0207A88436D
:10464000207201D006E027727C4801F05DFFA7725E
:10465000A771E771217A7AA001F098FF0028F9D1BB
:10466000754930780A78014611432968497817D08E
:10467000571E0123BB40194270D0401E10426DD11D
:10468000287909286AD12868C3781909012965D1D0
:1046900081790A09022A61D10279002A0CD102E04B
:1046A00001295BD1E9E74679002E05D1C679002EB4
:1046B00002D1007A002851D01F070E073F0F360F96
:1046C000002A1ED001210903012A04D0022A0FD09A
:1046D000032A12D015E0012F02D0002F02D010E0E3
:1046E000012200E0002205200007FDF7F2FB08E0B0
:1046F000012FF7D0002FF3D003E005200007FDF7CE
:10470000E4FB2868C07900281DD001218903564B9D
:10471000012804D002280ED0032811D013E0012E66
:1047200002D0002E02D00EE0012200E00022184646
:10473000FDF7CFFB07E0012EF8D0002EF4D002E009
:104740001846FDF7C2FB2868407900281FD00128D1
:1047500005D0022811D0032814D018E067E0012FFB
:1047600002D0002F02D012E0012200E0002205203A
:1047700002210007FDF7ADFB09E0012FF6D0002F65
:10478000F2D004E0052002210007FDF79EFB286817
:10479000007A00281ED0012804D0022810D0032857
:1047A00013D017E0012E02D0002E02D012E0012219
:1047B00000E00022052001210007FDF78AFB09E047
:1047C000012EF6D0002EF2D004E0052001210007D2
:1047D000FDF77BFB1648007800280AD016480078C1
:1047E000002806D0082804D80121401E81406172AB
:1047F00001E0012060720120E0701CA001F0C6FE03
:104800000028FAD17D20C000FDF729FA00240A4DC6
:1048100009E0FFF7EDFC28781949401E4843FDF7F1
:104820001EFA641CE4B22878401E8442F1DBF8BD15
:104830009F00002058000020A00000200C0700204E
:1048400052656365697665642041434B20746F202F
:1048500047726F75702052582C41434B206973206A
:1048600025640D0A00000000000400504D617070C6
:10487000696E67207375636365656465640D0A001E
:10488000C4090000F8B51D4616460F460446FDF75C
:1048900027FB314626464036009000291ED043E0D3
:1048A000681C1BD0002D05D0FDF71AFB0099401A9B
:1048B000A84213D920684168E022914341602068F2
:1048C000026840218A43026023E021680A6882432B
:1048D0000A6021680A6802430A601FE02068816854
:1048E00038468843DCD124E0681C1DD0002D06D05A
:1048F000FDF7F6FA01460098081AA84214D9206874
:104900004268E0218A434260206801684022914366
:1049100001600120A16A40038142D6D00120707459
:10492000002030740320F8BD206881683846884331
:10493000DAD00020F8BD7047014948607047000098
:1049400000000020012070470149802070470000CE
:1049500040DD4A1F10B50348406840688047801C0E
:1049600010BD0000000000200148007970470000E1
:10497000D8010020F3B5024600206D498BB0002A13
:104980000BD0012A7ED10024486C2546072854D03C
:10499000082855D0092858D155E06548C069FBF76B
:1049A00039FE074600910C98FBF734FE06900E4640
:1049B000302000F08EFC4007800F02D000245D4DB7
:1049C00001E000242546272000F083FC58494007D9
:1049D000400F098C401C4018FBF71CFE544A203243
:1049E00009929278012A21D00022524BFBF756FC03
:1049F00022462B46FBF752FC3346069AFBF74EFC49
:104A0000099A1279012A14D000221346FBF746FCBA
:104A10000322FBF7D5FD3A46009BFBF759FD002228
:104A2000454BFBF7EDFC03F0E7FD7DE0002213466C
:104A3000DCE7002201239B07E8E700243F4D04E068
:104A400000243F4D01E03F4D00248F6C0120B84011
:104A5000FBF7CCFD02460B4620462946FBF738FD06
:104A600002460B4600203349FBF732FD304E044628
:104A700040360D46F089FBF7CDFD0022324BFBF7A7
:104A80000DFC00E052E022462B46FBF7B9FC0791F3
:104A90000890707B001DFBF7BDFD05910690307BF3
:104AA000002800D00220381A8000FBF7B3FD0490E4
:104AB0000C980391C000B900401AB17C090140185C
:104AC000317C002900D01421401A1C30FBF7A2FDD4
:104AD000039B049AFBF7FCFC03F064FA059B069A1F
:104AE000FBF78EFC002207460E461346FBF7BEFD81
:104AF00002D23846314601E0002001460022134B25
:104B0000FBF7CCFB22462B46FBF77AFC079B089A67
:104B1000FBF7C4FB0022084BFBF772FC0C4A0D4B61
:104B2000FBF7BCFB03F0FCFAFBF782FD0DB0F0BD18
:104B3000D80100200000F03F00408F408084FE40FC
:104B400080840E4180841E410000114000002040FE
:104B50002B8716D9CEF7EF3F00207047F8B51E4DD2
:104B60001E4928601E4801F01DFC1D481B491430D9
:104B700001F018FC1A481949283001F013FC686844
:104B800001680120884700F0F7FBFFF7EBFC0020ED
:104B900000F03AFD68688168284608308847114E61
:104BA000002460002718F05D00F0F6FCB819817849
:104BB000407801F0DBF9641CE4B2102CF1D3002042
:104BC00000F0EAFC0649002068390871686840680E
:104BD0008047801CF8BD000000000020CD51000877
:104BE000400200206C8C000810B586B01421684685
:104BF000FBF71AFB0E4801900220010302906A465F
:104C00000C48FFF743F80C4C01216A468902204604
:104C1000FFF73CF801216A46C9022046FFF736F843
:104C2000FF216A4601312046FFF730F806B010BD7B
:104C300000001110000800500004005010B586B0AC
:104C400014216846FBF7F0FA1148FFF775FE11488A
:104C50000190022002900320012103906A4649033B
:104C60000D48FFF713F80D4C01216A4689022046D2
:104C7000FFF70CF801216A46C9022046FFF706F843
:104C8000FF216A4601312046FFF700F806B010BD4B
:104C900034000020000011100008005000040050F3
:104CA00070B5044601210368002249030C48FFF750
:104CB00023F80C4D01210022890228466368FFF782
:104CC0001BF801210022C9022846A368FFF714F847
:104CD000FF21002201312846E368FFF70DF870BD7F
:104CE0000008005000040050FFB581B01D46174673
:104CF0000E460124019800F04FFC304600F00CFCF9
:104D0000052000F081FC0120FCF7F3F801F038FBEE
:104D1000064606E0019800F00DFBB84201DD0024D4
:104D200004E0304601F032FBA842F3D300F040FF2C
:104D3000204605B0F0BD0000F8B5002568460570B6
:104D4000934C2079012809D0022857D12046683099
:104D500001F0DAFB607901287ED106E16079002854
:104D600018D001284AD14021122001F0FFF812206A
:104D700000F0AFFA694608700878854E8006403624
:104D800000286ADA2021122001F0F0F8B07D002816
:104D900076D083E07E4E20363079012835D13F2011
:104DA00000F097FA69460870087880072DD40B2127
:104DB0003E2001F0DBF810213F2001F0D7F830460B
:104DC0005C3001F0A1FBB079002818D00D2000F074
:104DD00080FA402101430D2001F0C8F830467030C0
:104DE00001F05AFB6B480068002803D000690028D6
:104DF00000D0804735747574A5876587F8BD644811
:104E0000903001F081FB2571ECE7618F624F002942
:104E10000AD1A08F002807D1B078002831D03220E5
:104E200000F057FA6087618FA08F091AC9B2C019C4
:104E300000F078FA608FA08755487C3001F064FB61
:104E4000B079002823D00D2000F043FA402101431F
:104E50000D2001F08BF801E08BE02CE04C48903005
:104E600001F01AFB4B4800680028C3D08768002F68
:104E7000C0D01222B256618F00234748B847B9E725
:104E80000BE0434801213A3000F04CFACBE74048B0
:104E90002571903001F038FBE4E725713C487C3007
:104EA00001F032FB3B4800680028A7D000690028C9
:104EB000A4D08047F8BD192000F00BFA40B2344F5F
:104EC000801C8010603738701A2000F002FA002130
:104ED0007956324A00290BDAA368934203D909189C
:104EE00000119D3802E009180011A438081809E0E3
:104EF000A168914203D9011108189D3802E00111FF
:104F00000818A4387084132000F0E3F938711020D9
:104F100000F0DFF901460D2001F028F839791E482C
:104F200000F000FAB07D002800D1257118487C30CF
:104F300001F0EAFA174800680028BBD08468002C0A
:104F4000B8D000232222FB56B25E39791248A0471E
:104F5000134C2078002806D12221715E11A001F0A7
:104F600015FB0028F8D12570F8BD0821122000F0AB
:104F7000FDFF0848257100680028F5D0006800286A
:104F8000F2D080470AA001F001FB0028FAD1F8BD59
:104F9000D801002000000020D800002040DD4A1F7A
:104FA00058000020527373693D2025640D0A0000EB
:104FB0007478446F6E650D0A0000000070B5354CC2
:104FC00025462179E61F6879F93E2035012911D05F
:104FD00002292AD1002828D1618FA08F33460A1ACE
:104FE000E97FC0188A424FDD00F0E7FFA08FE97F1C
:104FF000401847E0002819D0012816D125487C30F8
:1050000001F082FA8021122000F0B0FF0020207110
:1050100021480068002808D0C068002805D08047D3
:105020001EA001F0B3FA0028FAD170BD19489030E3
:1050300001F06AFA608F002809D1A08F002806D1FC
:10504000A878002813D0322000F043F96087608FE1
:10505000A28F811AA87F81420FDB401EC1B2901936
:1050600000F060F9A08FA97F4018401E0AE00948AF
:1050700001213A3000F056F9E9E7C9B2901900F081
:1050800051F904E0A08770BDD1B200F096FF608FA7
:10509000F8E70000D8010020000000207278546971
:1050A0006D654F75740D0A0070B5294D294C294660
:1050B00008462A7940304979C07C012A04D0022A66
:1050C00001D1002902D170BD002916D00129FAD1E1
:1050D0000128F8D10221122000F048FF20680028A2
:1050E000F1D040690028EED01C2000F0F2F82168D1
:1050F00080064969800E884770BD154C0126203412
:105100002674607C0028F7D12046703001F0FCF94D
:105110006674112000F0DDF840084042A0741B20A6
:1051200000F0D7F806021C2000F0D3F80643300A3E
:105130000102094A711A514380315043090A40184B
:1051400068630C2000F0C5F84009207670BD0000AF
:10515000D801002000000020093D000010B51248D1
:10516000407900281FD001281DD1122000F0B1F88D
:105170000E4CC0070BD00521122000F0F7FE20686E
:10518000002810D0816900290DD001200AE00421F7
:10519000122000F0EBFE2068002804D0816900296D
:1051A00001D00020884710BDD80100200000002059
:1051B00005484079002806D103482030017C0029A9
:1051C00001D1012101747047D8010020F8B52E4D9E
:1051D000287901282BD0022828D100F0CDF8FFF73C
:1051E000C1F9002000F010FA284E002460002718B2
:1051F000F05D00F0D1F9B8198178407800F0B6FE82
:10520000641CE4B2102CF1D3002000F0C5F91E4854
:105210004030007F00F026FA002028711C4800680A
:10522000002803D04068002800D08047F8BD687986
:10523000002816D1144E0024203634747474AC87C0
:105240006C870B213E2000F091FE10213F2000F0E2
:105250008DFEB07901280AD030462C71703001F0F3
:1052600053F90B4800680028E0D0C068DBE70D2048
:1052700000F02FF8402101430D2000F077FE024896
:10528000903001F009F9ECE7D80100206C8C00089F
:105290000000002070B50025012000F07DF9FF21FD
:1052A000112000F063FE052000F0AEF9002401207B
:1052B000FBF71FFE2C2000F00CF8C007C00FA04029
:1052C000641C0543E4B2202CF1D300F071FC2846A5
:1052D00070BD08B50122694600F003F86846007801
:1052E00008BDF8B50446012715460E46FF03052004
:1052F000002239460007FEF71DFD6006400EFEF74E
:10530000F5FE002405E00020FEF7F0FE3055641C99
:10531000E4B2AC42F7D30520012239460007FEF77C
:1053200009FDF8BD0A4610B501460020FFF7D9FF78
:1053300010BD000010B5002804D0012808D00020BE
:10534000C04310BD1120FFF7C4FF4008404210BD0C
:10535000074808498068884204D91B20FFF7B9FF35
:105360009D3810BD1B20FFF7B4FFA43810BD00000E
:10537000D801002040DD4A1F30B585B014216846B1
:10538000FAF752FF0120019003200E4D00240390F4
:1053900002946A4601212846FEF778FC002201218A
:1053A0002846FEF7C7FC0120FBF7A3FD6A46012152
:1053B00028460194FEF76AFC0620FBF79AFD05B02B
:1053C00030BD00000004005073B5394C06466179C9
:1053D0000020002902D0012966D128E00020A08702
:1053E0006846334D017961872035A878002809D0B7
:1053F000322000F0BBFD68460279501E3F2806D8D7
:10540000EA770AE0012101A800F0D7FDF3E7314671
:10541000284803F053F82020E877E97F304600F071
:10542000CCFDA08FE97F4018A087A06A3CE020480F
:10543000BE254030407D012821D03320FFF749FFB1
:105440002840411C332000F091FD1D213B2000F03D
:105450008DFD68460179164860300171222000F008
:1054600085FD00210E2000F081FD00210D2000F0BF
:105470007DFD0120FFF72DFF40070AD00EE033200D
:10548000FFF727FF28400146332000F06FFD192168
:10549000DCE700F0A7FB0120FBF72BFD6846017954
:1054A000304600F08AFDA06D00F0AEFB7CBD000030
:1054B000D8010020D800002010B5054B032805D0E6
:1054C000002210211846FEF735FC10BD0122F8E736
:1054D00000040050F0B50E4985B00A78824215D01C
:1054E00008700025012603270A4C14216846FAF7A4
:1054F0009BFE6A4610212046039701960295FEF70F
:10550000C5FB002210212046FEF714FC05B0F0BDBB
:10551000300000200004005070B505461048114EC0
:10552000856031462846FAF7E3FD0446304660437D
:10553000281A0002711040183146FAF7D9FD2102ED
:1055400044182002010E062000F010FD2004010E78
:10555000072000F00BFDE1B2082000F007FD70BD50
:10556000D8010020093D000070B50D46044600F04A
:1055700013F8002C04D0012C0AD12946232005E081
:1055800004488078002803D12946322000F0EEFC40
:1055900070BD0000F801002010B504460120FFF79F
:1055A00098FE0106174801D5012100E00021417154
:1055B000C9B2A14224D04471012C0FD000F0F8FAF6
:1055C0000120FFF786FE4106490E012000F0CEFCC7
:1055D0000021402000F0CAFC30210EE000F0E8FA83
:1055E0000120FFF776FE80210143012000F0BEFC80
:1055F0000021402000F0BAFC0021412000F0B6FC60
:1056000010BD0000D801002070B5154C050015D064
:105610006068016801208847606801690020884748
:1056200060684169284688470120FFF752FEC1089B
:10563000C9002943012000F099FC70BD0120FFF74B
:1056400048FEC108C900012000F090FC60680169B3
:1056500001208847606801680020884770BD00000D
:105660000000002010B504460120FFF795FF054813
:10567000002C047701D0342100E01221392000F001
:1056800075FC10BD1802002070B504460920FFF714
:1056900020FE06464D20FFF71CFE05462148806887
:1056A000FFF752F97106490E084370210843C109FA
:1056B0002AD0112C02DD07210D4302E0ED08ED0098
:1056C0002D1DE943490703D0022C0CDA02240DE01A
:1056D000052C01DA052402E0142C00DD1424010954
:1056E0000901641F05E0112C00DD112401090901E5
:1056F000A41E2007000F0143092000F037FC2946B3
:105700004D2000F033FC70BD0021C9438C4201DA0A
:105710000C4602E00E2C00DD0E2401090901641C78
:10572000E7E70000D8010020F8B5064600277648D4
:1057300000F0EAFE744C683C6079002802D0012831
:1057400025D125E0704D4020483DAF79FFF7C1FDE0
:105750008107890F40200C3100F008FC4120FFF741
:10576000B8FD3E2108400146C131412000F0FEFB5A
:105770003520FFF7AEFD8006800EA8771E210D2094
:1057800000F0F4FB002028746874A08760877DE037
:105790005D4D283D687D012825D03320FFF799FD18
:1057A000BE210840411C332000F0E0FB1D213B20BE
:1057B00000F0DCFB606C09287ED23120FFF789FD08
:1057C0004106490E312000F0D1FB0021302000F0CD
:1057D000CDFB606C030001F03CFA0910171E252C6C
:1057E000333D3D3D41003320FFF773FD412101432F
:1057F000332000F0BBFB1921D9E748212F2000F00E
:10580000B5FB4249A06821E044212F2000F0AEFB07
:105810003F49A0681AE044212F2000F0A7FB3D4932
:10582000A06813E044212F2000F0A0FB3A49A068B3
:105830000CE044212F2000F099FB3849A06805E0D6
:1058400044212F2000F092FB3549A0684018FFF753
:1058500063FE03E040212F2000F088FBE87CAF7D51
:10586000012835D01F21112000F080FB4020FFF7D8
:1058700030FD8106890E402000F078FB00210F20CA
:1058800000F074FB00210D2000F070FBFF210131BE
:105890002448FAF7C9FC01202071002E08D01A48CC
:1058A0003146143000F0E6FD1748143000F0F4FDE6
:1058B0006079002816D000E003E0002F1FD00520FB
:1058C0001EE03120FFF705FD802101433120C3E7B1
:1058D0001D21112000F04AFB4020FFF7FAFC332184
:1058E0000140C8E70520FFF78FFE0748E16A28302E
:1058F00000F0C0FD0448283000F0CEFDF8BD0620C1
:10590000FFF782FEF8BD000040020020821E00006A
:10591000B4280000043D00005E510000127A00002F
:10592000C6A20000D8000020FFB587B017460C467D
:105930000546139EFFF730FE11999848090A069113
:10594000002D04D0012D7AD1022C7AD9FEE7C7614F
:10595000054644611098A8619048203086701499DB
:10596000C170159901711899417119998171119836
:1059700028843846FAF74EFE07460B4601913A4610
:1059800000208749FAF7A4FD0322FAF719FE0490D4
:1059900005911298FAF73EFE059B049AFAF730FD3E
:1059A0000022804BFAF72CFDFAF742FEE8623A46F5
:1059B00000207D49019BFAF78BFDFAF739FE85B28D
:1059C000290A022000F0D2FAE9B2032000F0CEFA50
:1059D0002046FBF7A9FD0146122000F0C7FA1098F7
:1059E000FBF7A2FD0146132000F0C0FA252006991E
:1059F00000F0BCFA1198C1B2262000F0B7FA002ED0
:105A000001D0149900E0FF21322000F0AFFA3020DD
:105A1000FFF75FFC6F210840002E01D0002100E05D
:105A200080210843159909010143302000F09EFAB6
:105A30003120FFF74EFC4021014331209FE0A0E0E0
:105A4000FFE75648E41D554D8764446440350A9885
:105A500068731198E8812E74149868741598A87466
:105A60001698E87417982875189868751998A87585
:105A70000C2F01D90C2702E0062F00D20627072C95
:105A800002D0082C02D003E00B2F45D00C2F43D0BE
:105A9000002028731D20FFF71CFC0A9920014900F3
:105AA00008433043C1B21D2000F060FA1E20FFF70A
:105AB00010FC082108403901084315998900084362
:105AC00012998905890F0843C1B21E2000F04EFAD1
:105AD0002620FFF7FEFBF7210840297BC900084379
