:020000040800F2
:10000000E80F0020D5000008B14F00084D4D000852
:1000100000000000000000000000000000000000E0
:1000200000000000000000000000000095550008DE
:100030000000000000000000A15200083D70000810
:10004000E7000008E70000087F530008E700000809
:10005000E7000008231500083315000843150008C1
:10006000E7000008E7000008E7000008211000088A
:10007000E7000008E7000008E7000008E7000008C4
:10008000E7000008E7000008E700000800000000A3
:1000900043710008E7000008E7000008E7000008D7
:1000A000E7000008E7000008E7000008E700000894
:1000B000E70000081B53000800000000E7000008EC
:1000C0000348854600F0E8FB00480047DF99000838
:1000D000E80F00200448804704480047FEE7FEE799
:1000E000FEE7FEE7FEE7FEE7D9700008C100000862
:1000F000F0B51FB40646002082B0054640240191A9
:1001000000901BE0019922460F46304600F0BBFAF2
:10011000049A059B801A994110D31046194622462D
:1001200000F0A1FA361A8F410197224601200021E2
:10013000009F00F098FA38184D4100902046641E48
:100140000028DFDC019B00982946324607B0F0BD4D
:1001500030B5434351435C18010C130C0D465D430D
:100160002C1980B292B20546554351430A0C09043A
:100170004D1962415843010C00044019514130BDF2
:1001800003460B439B0703D009E008C9121F08C0B0
:10019000042AFAD203E00B780370401C491C521E5B
:1001A000F9D27047D2B201E00270401C491EFBD266
:1001B00070470022F6E710B513460A460446194672
:1001C000FFF7F0FF204610BD421C0178401C0029BB
:1001D000FBD1801A704710B5002200E0521C835CEE
:1001E0008C5CA34201D1002BF8D1D8B2E1B2401A05
:1001F00010BD30B505460020034600E05B1C93426D
:1002000005D2EC5CC85C201A01D1002CF6D130BDBF
:10021000F0B507460846584087B0C00F0490480024
:100220000E46590040084908BC1A884105D2384694
:1002300031461E4617460B460246580040081043FA
:100240004CD0300D039040055900400D490D0590EC
:10025000401A0290402872DA18030121000B0905A8
:100260000843019004980092002805D00199524259
:100270000020884100920190029840210A1A0199B9
:10028000009800F0F0F905460C466B4607CB00F0ED
:100290000BFAC0197141039A0E0D0023D71756406F
:1002A0001A467A40164344D0049A002A2DD0029A66
:1002B000012A039A15DC1205C01A91410126360560
:1002C000001C7141D20F059ED20700930192029645
:1002D0002A46234600F008FA07B0F0BD38463146FA
:1002E000FAE71605224A0F46B218C01AB741012193
:1002F0000905001C4F4100187F411146181879412B
:10030000E20F10436D19644113E0E2076D081543D5
:100310006408C2071443039A01261205C01A9141CA
:100320003605001C7141CE07400830434908C0180B
:1003300051412A46234600F0CAF9CDE7FFE7049869
:1003400001224000C117121A00238B410498314644
:10035000C417381AA141EEE730B40124E407634022
:1003600030BC55E730B40124E407614030BC4FE7AE
:100370000000E0FFF0B51FB488B00B990998002485
:1003800048400999C00F490049080991C0070B99D5
:100390000090490049080B9109990898A64608431E
:1003A0001CD00B990A98084318D0099801244000E2
:1003B000420D4800410D099824050003000B20431D
:1003C00009900B980003000B20430B9050181C4918
:1003D0004018002201901446104605E00020014616
:1003E0000DB0F0BD032801DA034600E003239C466C
:1003F000C11A0AAE0AE05F0008ADED5B4F00F75B83
:100400007D430027AA187C41491C5B1E6145F2DD33
:10041000410004AB5A522104120C0A43240C401C24
:100420000828DFDB01980290009970460191009046
:10043000059B049A0799069800F056F9D0E700004A
:100440000DFCFFFFF0B50C465C4085B0E40FE407FF
:1004500003944C000026640859009446490802465B
:100460000296224321D062460A431ED06200570DF5
:100470004A000E032303550D012402462C4924058E
:10048000781B1B0B360B4018234326436146009014
:100490001C46501AB44103D30098401C009002E05F
:1004A000921800985B41002803DA0020014605B04D
:1004B000F0BD0020012109050746864611E064468B
:1004C0001D46141BB54106D36546521BB341744605
:1004D00007430C43A646CD07400849082843921815
:1004E0005B4105460D43EAD11046184313D06046E0
:1004F000194650407140084306D06046101AB34177
:1005000006D20122002306E000220123DB0702E0DD
:100510000122D2435310009874460105381C6141F2
:10052000029C039D0019694100F0D1F8BFE700006B
:10053000FD03000010B5002904DB0C460121C907AA
:100540004042A141002B04DB1C460123DB07524241
:10055000A341801A994101D2012010BD002010BD95
:100560000EB5C217C10F5040CA0740180021054BF5
:100570000293019200910A460B4600F0B5F803B0D1
:1005800000BD0000330400000EB5054902910021B2
:1005900000910A460B46019100F0A6F803B000BD99
:1005A0003304000070B5CD0F4A0009030123090B85
:1005B0001B0519430B4BED070024520D9A4201DA3B
:1005C000002070BD074B34339A4203DC9A1A00F0C6
:1005D0005AF802E00449511888402C43F1D04042B7
:1005E00070BD0000FF030000CDFBFFFF4A000903C0
:1005F0000123090B1B051943094B10B5520D9A42F3
:1006000001DA002010BD064B34339A4203DC9A1AFB
:1006100000F039F810BD03495118884010BD0000A2
:10062000FF030000CDFBFFFF70B50446002903D097
:1006300000202022012310E0002801D00020C04328
:10064000C046C0460DE02546D5408D4205D30D4637
:100650009540641B1D46954040191546521E002DBD
:10066000F1DC214670BD10B5202A04DB0146203A9A
:100670009140002010BD914020239C1A0346E34086
:100680001943904010BD10B5202A04DB0846203ADB
:10069000D040002110BD0B46D340D0402024A21AE8
:1006A00091400843194610BD10B5202A06DBCB1730
:1006B0000846203A1041C1170B4306E00B46134190
:1006C000D0402024A21A91400843194610BD10B50D
:1006D000002B08DA0024401C614192185B411A4348
:1006E00001D14008400010BDF0B51FB482B00546EE
:1006F0000C0003D008460BF0A1FB02E00BF09EFBC0
:1007000020300246009021462846FFF7ACFF049BAC
:10071000059A04460F4618431143084314D018465F
:1007200010431BD0009840210A1A18460599FFF77C
:10073000AAFF05460E46009A05990498FFF793FF15
:10074000084305D0012004E02046394607B0F0BD3B
:100750000020C11705430E432C43374300990E98E0
:100760006305401A7905E40A00220C43FD0A0A30A9
:1007700002D500200146E9E70105101969410C9CEA
:100780000D9D00196941FFF7A2FFDFE7F8B50546A7
:10079000480040080C46284304D06000184A400D29
:1007A000904201DD2846F8BD15493539884210DCF4
:1007B00088420BDB290D200308432903014305D0A0
:1007C000E00F1049C00741180020F8BD0020014685
:1007D000F8BD161A4020821B28462146FFF743FF2A
:1007E00007460091284621463246FFF74CFF3A461D
:1007F000009BFFF76CFF3246FFF735FFF8BD0000A6
:10080000330400000000F03F4A0009030123090BF4
:100810001B0519430A4B10B5520D9A4202DA00200B
:10082000014610BD064B34339A4203DC9A1AFFF797
:100830002AFF10BD034BD218FFF715FF10BD0000B3
:10084000FF030000CDFBFFFF10B5002904DB0124EE
:10085000E40740428C412146002B04DB1C46012367
:10086000DB075242A3418B4200D1824210BD0000FF
:1008700010B5002904DB0124E40740428C412146E5
:10088000002B04DB1C460123DB075242A3419942A3
:1008900000D1904210BD00001CB5094800900948E5
:1008A000019005460126009C05E0E36807CC334330
:1008B0000C3C98471034AC42F7D3FFF705FC00001E
:1008C00090EA0008B0EA0008F0B58DB008AD142138
:1008D00001912846FFF76DFC40273F0202373F0297
:1008E00010373F022C3738680126304338603868AB
:1008F00030400390032000900B9000240A94099646
:1009000030030890039805200007294601F05FFD99
:1009100003AD28460199FFF74CFC386802210843D3
:100920003860386808400290009806900594049654
:10093000B0030390029850200004043000022946BE
:1009400001F045FD0DB0F0BD10B586B001AC14212D
:100950002046FFF72EFC01200290402109020231BF
:100960000902103109022C310A6802430A60096841
:100970000140009103200490002103910190009810
:1009800005200007214601F022FD06B010BD0078C9
:10099000202109020031090202310902F4314A68BA
:1009A00020231B0200331B0207331B026C339854B5
:1009B00001200870704780B5082000020030000256
:1009C000093000028F300BF0FAF9202000020030CD
:1009D000000202300002F4300021017080BDF0B549
:1009E00085B0202000020030000202300002F43006
:1009F0000178012900D0A7E000230370416820247A
:100A0000240200342402073424026C34625C0D2A70
:100A100006D00A2A04D0012A37D14360082091E089
:100A2000002900D190E063544360207801274128D9
:100A300000D086E06078542800D082E0A0780028BA
:100A40007ED03F2829D10824240200342402E13436
:100A500024029B34204606F04EFD0028FAD10027E0
:100A60000824240200342402C93424029C343E4663
:100A70001E2E66D01820704320184569284606F0BF
:100A80003AFD0028FAD1761CF2E77F2902D14360B3
:100A9000062057E0491C416056E003970193082067
:100AA000000200300002C93000029C30001D1F26E9
:100AB0000294A11C0491761E1FD0044618340768C6
:100AC000001F0568049829463A46FFF792FB002864
:100AD0002046F0D10298C0198178801C00292CD0C2
:100AE0003D290CD03F29039F2BD1083C256828467F
:100AF00006F001FD0028FAD11DE0039F21E0411C12
:100B000042783F2A02D1807800281FD0103C22680A
:100B10000846904707460821090200310902E231E0
:100B2000090220312846FFF756FB002809D0002F84
:100B300007D100F0A2FB019F03E00C3C216888472D
:100B40000746384608F0CCFB05B0F0BD143C2268DF
:100B500008469047F4E7F0B589B004460769406954
:100B6000258900280691059010D0002D0ED10892FD
:100B700005CCC15D7E1C083CB21A00D31646805DD0
:100B800000024018801C0790089A03E0002807958F
:100B900000D10790002D2E46394600D11646E06858
:100BA00000278142384604D3079880B2081862684B
:100BB000101A6A426A4151000191891908931D4631
:100BC00003914D438542394610D30399FFF72CFD1D
:100BD000C8B201998842394608D9217F8A0701D5D0
:100BE000019903E00122114049420140002E00D149
:100BF000BEE00598281840186168884200D9B7E01F
:100C0000300A02900021089D069F04966268002D1C
:100C100000D1A5E0079880B223691818831A00D381
:100C2000184620612389002B089512D1226816549A
:100C3000401C6268821A00D310462268029B13543B
:100C40006269921C05926261401C6268831A00D33B
:100C50001846131AB3421D4600D33546B3420DD28F
:100C6000237F002B0AD0824229D0DA0706972DD1A4
:100C70009A0733D42E460D46059A6CE02168081871
:100C8000069739462A46FFF77BFA60694219626186
:100C9000761B002003990791002E0CD0069F79192E
:100CA000226810183246FFF76BFA606980190590C8
:100CB0006061294602E005922946069F049EA069CC
:100CC000401CA061BF19089D6D1E9FE72189002966
:100CD00025D0059A5219002005463BE021890029BC
:100CE00049D121680918891E0D7021680918491E0B
:100CF0002A0A0A702168081839462A46FFF740FA7E
:100D0000606940196061A069401CA061761B206881
:100D10000670300A216848706069821C19E02168F9
:100D20000918891EFF220A7021680818401E0270E7
:100D30006069421962612089002802D000200546BE
:100D400009E0206806702068029941706069821C81
:100D500000250220626100212161019971189AE742
:100D6000206901994018811A00D3084621680F189C
:100D7000384609B0F0BD0027FAE710B50446002058
:100D80002160E06020616061A06102992177238188
:100D90006260890702D5002B00D0C04310BDF8B5B2
:100DA000048900220A804369002B5BD00689002E4B
:100DB0000AD1C66884C8955D761C0838F71B00D335
:100DC0003E46925D120256190E80027F03251540A1
:100DD000012D16D1FF221202FF32964202D1028962
:100DE000002A11D0C7680269974207D90289002AF0
:100DF00004D045680095ED1B954209D332463D4627
:100E000018E0C568324615E0C768426800920022C3
:100E10000025C560009E9B1BDB194361002A08D199
:100E20000122012E00D8921B0668B25C12023678AD
:100E300092190A806142614149008F18DC1B4461AC
:100E40006D184668AC1B294600D321460468BB4296
:100E500004D0AA18931B00D31A46C2606218816995
:100E6000491E81611046F8BDF0B5038900220A8051
:100E70004469002C3BD00489C268002C09D190C879
:100E8000A55C561C0838F71B00D33E46A45D24021F
:100E900064190C80057F03262E40012E1ED1FF25EC
:100EA0002D02FF35AC4202D10489002C0AD004691E
:100EB000A24213D90489002C10D04568AD1AA5426E
:100EC0000AD30BE044680122012C00D8121B0468ED
:100ED000A25C1202247814190C800022002B00D18D
:100EE000921C4168511A00D30A46006882181046C5
:100EF000F0BDB0B50824240200342402E9342402F1
:100F00002A34204606F0F7FA0028FAD108242402F1
:100F100000342402E93424024A34204606F0EBFA75
:100F20000028FAD108242402083424042068002868
:100F300020D02068122840D108F0BEFB20210902F1
:100F4000003109020031090200310122204600F07F
:100F5000B8FABFF34F8FE0200004ED3000020C30F0
:100F600005210902FA31090404310160BFF34F8FF2
:100F700000BFFDE708F0A0FB2021090200310902B3
:100F8000003109020031012520462A4600F099FA75
:100F90000824240200342402E93424026234204666
:100FA00006F0A9FA0028FAD1202000020030000241
:100FB00007300002F0300570B0BD00F0B3F8B0BDEE
:100FC000B0B586B0002005900490039003200290F5
:100FD00040030190402424020234240210342402ED
:100FE0002C34206801252843206020682840009088
:100FF00000980520000701A901F0E9F92068A8433D
:101000002060AD05A0682843A06000F0CEFD00F090
:10101000E4FD00F0D6FDA068A843A06006B0B0BD16
:1010200080B50AF05DFE80BD80B503F067FB80BD32
:10103000B0B5202000020030000203300002AC30C6
:101040003C3006F0FDF96C2020252D0200352D02E4
:1010500001352D02703501242C542020000200306F
:101060000002033000020F30007803280FD002285E
:1010700006D0012815D1052000072103002402E035
:10108000052000072103224601F069FA08E07024D8
:101090002A5D052000070121090301F060FA2C5D9B
:1010A0006C75B0BDB0B520200002003000020330E6
:1010B0000002AC30503006F0C3F96D2020252D021F
:1010C00000352D0201352D02703501242C542020CD
:1010D00000020030000203300002113000780328C3
:1010E00013D0022808D001281BD1A10350200004EE
:1010F00004300002002404E0A10350200004043066
:101100000002224601F02BFA0AE071242A5D012038
:101110008103502000040430000201F020FA2C5D0D
:10112000AC75B0BDF0B591B03F20C44308252D0289
:1011300008352D04A035002C07D0601901A90E191F
:1011400000F0BEFB3064241DF5E704990A0E342339
:10115000202000020030000202300002FC30C254A5
:1011600001AC1CCC054628351CC502463432D17072
:101170000B0A9370090C51700599D1710B0A937188
:101180000B0C5371090E1171069B190E4A1E9141E9
:10119000C170FF210A041C461440651EAC418472D4
:1011A00003711B0A4371079B0373089C4483099DC9
:1011B00085731E0CC6721E0EC6711B0A0372230CA9
:1011C00003832B0A43732B0C83710A9B1C0E20256F
:1011D0002D0200352D0201352D0289352C701C0C95
:1011E00020252D0200352D0201352D028A352C7067
:1011F0001C0A20252D0200352D0201352D028B35CC
:101200002C702024240200342402013424028C3463
:1012100023702024240200342402013424027E346A
:101220000B9B23700C9CC4830D9D45840E9EC6842D
:101230000F9F8774240C84832C0C0484340C8484C6
:101240003C0A44743C0C04743C0EC4731C0E651EB2
:10125000AC4184701A40541EA241427009021940E8
:101260004A1E91410170109981750A0A42750A0C53
:101270000275090EC17411B0F0BDF8B52024240226
:101280000034240202342402FC34A26A607A83000F
:101290002021090200310902093109026431CA50D2
:1012A000E26A431CDBB29B00CA50226B831CDBB298
:1012B0009B00CA50626B12BAC31CDBB29B00CA50BF
:1012C000A26B12BA031DDBB29B00CA50A2791204B2
:1012D000637B1B029A18A37BD21803460833DBB248
:1012E0009B00CA50628B238B1B049A18C31DDBB270
:1012F0009B00CA50E2781206A37A1B049A186379FD
:101300001B02D2182379D218431DDBB29B00CA50AE
:10131000E2791206E37A1B049A18237A1B02D21888
:10132000237BD218831DDBB29B00CA5020221202FD
:101330000032120201321202893212781206202380
:101340001B0200331B0201331B028A331B781B0470
:101350009A1820231B0200331B0201331B028B331C
:101360001B781B02D21820231B0200331B020133FF
:101370001B028C331B78D21803460933DBB29B0067
:10138000CA50E28BA38B1B049A1803460B33DBB2C3
:101390009B00CA50628C238C1B049A1803460C33A2
:1013A000DBB29B00CA50E28CA38C1B049A18034644
:1013B0000D33DBB29B00CA50A278120663781B047F
:1013C0009A1823781B02D21820231B0200331B0219
:1013D00001331B027E331B78D21803460A33DBB27B
:1013E0009B00CA50E27B1206237C1B049A18637C84
:1013F0001B02D218A37CD21803460E33DBB29B002B
:10140000CA50A27D637D257DE67C07461037677252
:1014100036062D04AD191B02EB189A180F30C0B216
:1014200080000A50FAB20820000208300004603040
:1014300000F047F800206072F8BDF8B5EFF31086B1
:1014400072B600F0E2FE08273F0208373F0460371B
:101450000824240200342402D034240213343D46EC
:101460003846783085420BD2284600F076FE0028B8
:1014700004D086F31088204606F03DF82D1DEFE7D6
:1014800000F084FE86F31088F8BDB0B50446EFF393
:10149000108572B600F0B9FE204600F05EFE00280E
:1014A0000AD085F310880820000200300002D030F6
:1014B0000002133006F01FF800F068FE85F3108874
:1014C000B0BDFEB502920C460646EFF310800190C7
:1014D00072B600F09AFE002508273F0200373F024F
:1014E000CF373F02F6370094A800241802988542AF
:1014F00011D222680220314600F055FE002806D0A5
:10150000019880F31088384605F0F5FFEEE76D1C72
:10151000361D009CE8E700F039FE019880F3108842
:10152000FEBD80B5012000F043FF022000F040FF27
:1015300080BD80B5042000F03BFF082000F038FF9C
:1015400080BDF0B585B0102008273F0200373F026C
:1015500023373F02B137B8472020B8474020B8476B
:101560008020B84701242002B847402636020136C1
:10157000360204363602143630687D218D0003951C
:101580000C352842049637D06102202636020036F8
:101590003602033636021436308800281FD0202247
:1015A00012020032120202321202483290780028EF
:1015B0001DD10520000702910299019200F0C6FF9B
:1015C000019AD070318816460836304605F0E4FEA0
:1015D000304605F0F2FE02990198847007E0202061
:1015E0000002003000020230000248300470049E05
:1015F0003560084600F0D8FEA00200F0D9FEE002F7
:1016000000F0D6FE3068C00458D521032020000227
:101610000030000202300002FC300078012817D1AF
:1016200020252D0200352D0202352D02483528795E
:10163000002834D1502000040430000202910299A5
:1016400000F084FF68712E461C363046039920E076
:101650002026360200363602033636021636308829
:1016600000281ED020252D0200352D0202352D0226
:101670004835287900281CD150200004043000028D
:101680000291029900F062FF687131882E461C3683
:10169000304605F081FE304605F08FFE02992C7130
:1016A00007E0202000020030000202300002483033
:1016B000447004980160084600F076FE6003B84765
:1016C000A003B847E003B84705B0F0BDFEE710B58A
:1016D0002022120200321202083212024C32002181
:1016E00051610122520240231B0202331B022033AC
:1016F0001B0204331C6814431C601A68082414433A
:101700001C607F229043016010BD70B50122402013
:101710000002023000022030000218300168C905C2
:1017200001D400210BE0110220231B0200331B0215
:1017300008331B024C335C69022525435D61036855
:101740009B050BD5530220242402003424020834C4
:1017500024024C34656915436561194303685B05D0
:101760000CD59302202424020034240208342402DD
:101770004C34656908262E436661194303681B05CE
:101780000CD5D3022024240200342402083424027D
:101790004C34656904262E436661194303689B0433
:1017A0000CD55303202424020034240208342402DC
:1017B0004C34656910262E436661194303689B0308
:1017C0000BD520231B0200331B0208331B024C33B2
:1017D0005C6920252C435C6129430368DB030CD53D
:1017E000120420231B0200331B0208331B024C335C
:1017F0005C69402525435D611143016070BDF8B50A
:10180000044640273F0202373F0220373F02183785
:1018100000F0ACFE05463868C0070AD0601CFAD05C
:101820000326002C24D000F0A1FE401BA042F2D9D8
:101830001EE03868800701D5022038603868C0058E
:1018400013D43868800510D4386840050DD4386842
:1018500000050AD43868800407D43868800304D4AB
:101860003868C00301D4002602E0FFF74EFF0126CE
:101870003046F8BD10B5044600F065FD2021090290
:1018800000310902003109028431012000220A617D
:101890004C61886108461030083100F0D4FC002803
:1018A0000BD00824240200342402CF342402C03494
:1018B000204605F020FE0028FAD100F015FD10BDED
:1018C0000068202109020031090207310902EC31C8
:1018D00008600868704710B586B0044601A8142156
:1018E000FEF767FC402000020230000210300002C8
:1018F0002C30016801221143016000681040009003
:101900005002019000980020022C014608D8A10046
:101910000822120200321202C932120278325158E1
:10192000039002910520000701A900F050FD022C50
:1019300008D8072403210022204600F09BFE204601
:1019400000F08EFE06B010BD10B586B0044601A8AA
:101950001421FEF72EFC402000020230000210305D
:1019600000022C300168022211430160006810401F
:10197000009001200003019000980020022C0146F5
:1019800008D8A1000822120200321202C932120243
:101990007832515803900291502000040430000224
:1019A00001A900F014FD022C08D80724032100220D
:1019B000204600F05FFE204600F052FE06B010BD4B
:1019C00010B500210822120200321202CC3212029B
:1019D000AC32A82908D05358984203D353189C68B6
:1019E000A04202D30831F4E7FEE7187910BDF8B53C
:1019F0000125002800D1D5E00446806D002806D1DD
:101A0000542000212154E165204600F0CDF8A06D5E
:101A1000C0062DD420688168490729D48121490056
:101A2000A26D8A43911CA16581680325294040224B
:101A3000120201321202273212020832012902D1A7
:101A40000168C90735D161680126F7073F231B02EA
:101A5000FF331B02FF331B02FF33B94205D0B60729
:101A6000B14202D0AD07A9420AD10546103512E0B5
:101A7000542000212154A06D10210143A16591E063
:101A800005691D400561FF231B02C3331B02FF33A1
:101A90001B02FF3315462E681E402E602B680B4339
:101AA0002B60C16818239943C160A168C3680B43C8
:101AB000C36001214B0615689D431560A36B5B064F
:101AC00015681D4315608268D20003D40A07836835
:101AD000134383600091C268FF231B02FE331B0285
:101AE00002331B0219331340C3602269921E534212
:101AF00053419A00E5681543A269E669236A5F03CA
:101B00002F43256B616B6D003D430D4391032943CA
:101B1000F2030A43C1681143C160A66A05460C3549
:101B2000FF221146C2318E4204D02968E76A0F4372
:101B300037432F60616A0129009E0DD1002B07D029
:101B4000A16D20230B43A36525465C35334600E099
:101B500033042968194329600369216C01290DD1D7
:101B600091008B430361234644330ECB0A431A434F
:101B70000169114301610269324303E0D90702D0D0
:101B80000269B24302614169072291434161E16BFD
:101B900042690A4342610025E565A06D3043022198
:101BA0008843A0652846F8BD7047402000020130F8
:101BB00000025830000204300168012291430160A4
:101BC000704740200002013000025830000204300B
:101BD00001680422914301607047402000020130F7
:101BE0000002583000020430016802229143016073
:101BF000704770B5014624314A78022A34D104680E
:101C000022680E239A4322602368012293432360B3
:101C100040231B0202331B04043340252D020235EE
:101C20002D040835AC42154632D040252D02023530
:101C30002D041C35AC421BD040252D0202352D044D
:101C40003035AC4219D040252D0202352D044435E3
:101C5000AC420FD040252D0202352D045835AC4240
:101C60000ED10124250413E00421C163012417E0EF
:101C700010250DE0012425030AE00124250207E0D8
:101C80001E4668360125B44201D02D0600E02D0520
:101C90001D6000240C704A70816B002900D08847B9
:101CA000204670BDF8B50446006840252D02023577
:101CB0002D04296840273F0202373F040837B84205
:101CC0002DD040221202023212041C32904217D050
:101CD00040221202023212043032904215D04022C9
:101CE000120202321204443290420BD040221202FD
:101CF00002321204583290420AD10122D20411E079
:101D000080220FE00122D2030CE00122D20209E07E
:101D10002B466C330122984203D0D20602E00822FF
:101D200000E0D205264624360A4246D0016809075B
:101D300043D5026808218A430260B8422ED0402170
:101D40000902023109041C31884217D040210902DE
:101D5000023109043031884215D040210902023194
:101D60000904443188420BD04021090202310904A0
:101D7000583188420AD10121C9040FE080210DE0C9
:101D80000121C9030AE00121C90207E02A466C3299
:101D90000121904201D0C90600E0C9056960E16BEC
:101DA00001220A43E2630021317004217170616BEA
:101DB000002902D02046884720682968B8422DD0E3
:101DC00040221202023212041C32904217D04022EA
:101DD0001202023212043032904215D04022120216
:101DE00002321204443290420BD0402212020232DC
:101DF0001204583290420AD10122920411E040228A
:101E00000FE0012292030CE00122920209E02B462E
:101E10006C330122984203D0920602E0042200E0D3
:101E200092050A4245D00168490742D501688906F2
:101E300003D40168042291430160B8422DD04021AF
:101E40000902023109041C31884217D040210902DD
:101E5000023109043031884215D040210902023193
:101E60000904443188420BD040210902023109049F
:101E7000583188420AD10121890411E040210FE044
:101E8000012189030CE00121890209E02A466C3214
:101E90000121904203D0890602E0042100E0890577
:101EA000696005217170216B002902D020468847A6
:101EB00020682968B8422DD0402212020232120452
:101EC0001C32904217D040221202023212043032E9
:101ED000904215D040221202023212044432904243
:101EE0000BD04022120202321204583290420AD120
:101EF0000122520411E020220FE0012252030CE0E3
:101F00000122520209E02B466C330122984203D091
:101F1000520602E0022200E052050A4248D001685F
:101F2000890745D50168890603D4016802229143D7
:101F30000160B8422DD040210902023109041C3150
:101F4000884217D040210902023109043031884209
:101F500015D04021090202310904443188420BD0D6
:101F60004021090202310904583188420AD1012076
:101F7000400411E020200FE0012040030CE001208C
:101F8000400209E02A466C320121904203D0480603
:101F900002E0022000E048056860E06BE06300209A
:101FA000307001207070E16A002901D02046884716
:101FB000F8BDFFB5002863D0014624314A78002AD5
:101FC00001D100220A70022203914A7003681A6844
:101FD000FF242402FF342402C03424020F341440AE
:101FE00007460837E4CF81690091C1690191016A10
:101FF000029122432A4332433A4300990A4301990A
:102000000A4302990A431A60402212020232120461
:10201000A832402109020231090480318B4249D0A3
:1020200040210902023109041C318B4252D0402167
:1020300009020231090430318B4243D040210902A8
:102040000231090444318B421CD040210902023183
:10205000090458318B4225D040210902023109047C
:102060006C318B4216D0402109020231090408313B
:102070008B4238D111680F239943116040682FE0DB
:10208000012034E00F21090313688B43136040687B
:10209000000325E00F21090513688B431360406896
:1020A00000051DE00F21090413688B43136040688D
:1020B000000415E00F21090613688B431360406884
:1020C00000060DE00F21090213688B43136040687E
:1020D000000205E01168F023994311604068000197
:1020E000116801431160012003994870002004B079
:1020F000F0BDF8B52424045D012C01D10220F8BD07
:102100000446243402250095657005682F68012671
:10211000B7432F606B6080681028134600D00B46D1
:10212000AB60102800D01146E96028680099084388
:102130002860286804210143296028680821014398
:10214000296026702868304328600020F8BDE0B57B
:1021500001900198FEF768FF8CBDB0B50546C32419
:10216000240250342046FFF74AFB002800D0B0BDBF
:102170002020000200300002083000024C30002114
:10218000416129602046FFF73AFBB0BD40200002C4
:1021900002300002203000020430016801220A43AC
:1021A000026000207047F8B506462024240200345F
:1021B0002402083424024C34207C012801D102205E
:1021C000F8BD0D46009201202074C3273F0250370E
:1021D0003846FFF714FB002802D000212174F8BD17
:1021E00000206061002E09D0012E04D0022E08D1FB
:1021F00000992960F1E700992980EEE7009929709C
:10220000EBE73846FFF7FBFAE7E740200002023031
:1022100000022030000204300168C90701D101200A
:10222000704789210902AB310902CD310902EF3132
:1022300081600221090203310902043109020531DA
:10224000816000207047F0B585B005462024240247
:1022500000342402083424024C34207C012801D1AB
:1022600002203FE00F46012004902074C32636026E
:1022700050363046FFF7C3FA002831D102940020CF
:102280000190C043009738606A6840200002023025
:10229000000220300002043003901046A968C901F2
:1022A0008918884217D20746FFF711FA344630469C
:1022B000FFF7A5FA049B039E316808229143316021
:1022C000590232688A433260002806D16A6838466B
:1022D00080302646E2E7019801E000990F60029CF9
:1022E0000021217405B0F0BD402000020230000240
:1022F000203000020430016802220A4302600020FC
:102300007047F8B520273F0200373F0208373F02E9
:102310004C37387C012801D10220F8BD14460D4607
:1023200001203874C326360250363046FFF767FA6C
:10233000002805D1002078612C603046FFF75FFA55
:1023400000213974F8BD4020000202300002203024
:10235000000204300168890701D401207047016838
:10236000C9070FD089210902AB310902CD31090219
:10237000EF318160022109020331090204310902AF
:10238000053181608C2109029D310902AE310902BB
:10239000BF31C1601321090214310902153109024C
:1023A0001631C1600020704780B502F051F980BD40
:1023B00080B54021090201310902043109021431BA
:1023C0000A68024202D00860FFF7EEFF80BDF0B558
:1023D0008BB00291502109041C310902884201D0BE
:1023E000062100E005210B22120783180A22D3419F
:1023F0000193052B029C00D301910590203003909E
:10240000002640273F0201373F0204373F024020A9
:1024100000020230000210300002343000900A96B0
:102420003246049720680146D14000D18CE0012358
:1024300008939340184007907AD00992656810225B
:102440002A43122A0ED11C2232400F2595400998AA
:10245000C708BF000398C159A943256995400D439A
:10246000C55165680696122D68D80899A9400622BC
:1024700012040632114261D003270A988740059E54
:10248000B168B943E26882400A43B26029090998F9
:10249000814072689A430A437260FF4342000323FB
:1024A0002946194091403068384008433060A068A0
:1024B0009040F16839400143F160E800069E049FB6
:1024C000099A35D500990868089D284308600C20B2
:1024D00030400F2181409A4340231B0201331B04EB
:1024E0000833D5588D43019981402943D15039682B
:1024F0006268D00302D5079B194301E0079B99430B
:1025000039607968900301D5194300E099437960F7
:10251000B968D00201D5194300E09943B960F96860
:10252000900201D5194300E09943029C099AF96091
:10253000361D0A98801C0A90521C73E703210A9AE0
:102540009140CF43059EAAE70BB0F0BD006908405B
:10255000411E8841704742694A4042617047002AE3
:1025600001D0182200E0282281507047202000026C
:10257000003000020B300002E43000687047B0B554
:1025800000281BD004460068CC210902CC31016030
:10259000552109025531016061684160A16881607F
:1025A000FFF7E4FF05462068C168002908D0FFF75F
:1025B000DDFF401B3028F6D90320B0BD0120B0BD9F
:1025C000E16802698A4204D1AA210902AA310160A4
:1025D00000E001610020B0BD0068AA210902AA3113
:1025E00001600020704720200002003000020B3004
:1025F0000002E4300168491C0160704780B540204A
:1026000000020230000220300002016802220A4368
:102610000260032000F004F800F004F8002080BD00
:102620000020704780B501200007402109020231D7
:1026300009021031090238310A6802430A6000F0C9
:1026400031F800F025F8402000020230000220306E
:102650000002016808220A43026000F00FF880BD02
:102660001F21014001208840E0210904E1310902D5
:102670000860704780B502F09CFC80BD012080029C
:1026800040210904703109020A6802430A60704758
:102690000120400240210904703109020A68024306
:1026A0000A60704740200004703000020168102268
:1026B00091430160704710B540221204703212023B
:1026C00013680324A34303431360E0200004ED30A8
:1026D00000021030026804239A430260012901D1EC
:1026E00030BF10BD40BF20BF20BF10BD10B540227D
:1026F00012047032120213680324A34303431360CD
:10270000E0200004ED30000210300368042213437F
:102710000360012901D130BF02E040BF20BF20BFCC
:1027200001689143016010BDF8B5421E0021072ADF
:1027300033D9102800D1ACE001221302984200D115
:10274000D7E0402800D1AFE0202800D018E1402396
:102750001B0202331B0210331B02186D0090032072
:1027600004041E6D2640300C870008252D0200351C
:102770002D02CD352D02CC35ED59AF46009DA80573
:1027800000D510E15004864200D0F2E0A807C1173E
:102790009020000288300840F8BD90000822120204
:1027A00000321202CD3212025C32125808469746AD
:1027B000402000020230000210300002C36C0322ED
:1027C0001A40920008231B0200331B02CD331B0268
:1027D000BC339A58974600F093FAF8BD03200003E3
:1027E00040231B0202331B0210331B02DA6C02402F
:1027F000100B80000824240200342402CD3424026B
:102800008C3424580846A7461868400700D5A8E02D
:102810000120000382429FE0032083024022120233
:102820000232120210321202D06C1840840AA40044
:1028300008252D0200352D02CD352D029C352C5951
:10284000A7461468640700D58BE0984275D0012232
:102850009202904200D181E092E0402000020230DA
:10286000000210300002C36C0C221A4093089B0037
:102870000824240200342402CD342402AC34E3586A
:102880009F4603685B076CD40C2A4BD0042A65D0A2
:1028900076E0402000020230000210300002806B1F
:1028A000400208463BD46AE0402212020232120281
:1028B00010321202D06C400136D4106880015FD50E
:1028C000D0688002000F0821090200310902CD31D1
:1028D0000902FC31085CD1680902890F491CD368E0
:1028E000DB035CD41268D20663D53D2212020932A2
:1028F00062E0032000044024240202342402103445
:102900002402E36C0340180C800008252D020035DA
:102910002D02CD352D027C352D580846AF4600F0EE
:10292000D3F9F8BD006D09E09068800728D5022032
:102930000002DC3000026C3016E0106D80051FD5FF
:102940000120C003F8BD006840070AD418E02068E1
:10295000400706D410048342084610D100F0ECF979
:10296000F8BDF420000224300002F8BD0098800772
:102970001BD4A64204D118688003084602D4F8BDCF
:102980000846F8BD1868800C0C21014008200002A0
:1029900000300002CF30000240304058F8BD7A22AB
:1029A0001202123208E0D003F8BD902000028830F5
:1029B000F8BDF4221202243212025043FDF734FE15
:1029C000F8BDF0B587B00125290206910178890686
:1029D00040273F0202373F0210373F02002974D5DB
:1029E00005902907B86B0840049002D1B86B0843E2
:1029F000B8630391402424047034240220680699AB
:102A0000084211D12068069908432060FFF7AEFD07
:102A1000064620680699084206D1FFF7A7FD801BED
:102A20006428F6D9032590E003231E040598446822
:102A3000214631403A6802931B05B14205D16240FC
:102A40001A4002D03A6892037FD43A6D324027D0C0
:102A50008A4225D00178890622D5396DEA0401938E
:102A60003B6D13433B653B6D93433B65019B0A46BE
:102A7000B2433A65069A114212D0FFF777FD054638
:102A8000132424028834386D800506D4FFF76EFDC8
:102A9000401BA042F7D9029D57E005984468019B6E
:102AA00021463140B14206D11C40032212053B6849
:102AB000934323433B603A6D0A433A6504990029E6
:102AC00003D1B96B039A9143B9630368D90705D061
:102AD000F96C0322914382680A43FA64990705D589
:102AE000F96C0C229143C2680A43FA64590706D56F
:102AF00003218902FA6C8A4301691143F9641907B9
:102B000006D503210903FA6C8A4341691143F9642C
:102B100006990B4206D003210904FA6C8A438169A5
:102B20001143F964590606D501218906FA6C8A43D6
:102B3000016A1143F9640025190606D503218A04A8
:102B4000F96C9143C0690843F864284607B0F0BDAA
:102B5000FEB5402212020232120220321202136823
:102B600001252B40994208D913680126B3430B4332
:102B70001360136833408B4266D100910192016863
:102B80008A074024240202342402103424020C3424
:102B9000002A05D52268F0239A43836813432360F3
:102BA0000290C9073CD10199086801263040009A7B
:102BB0008242029B05D20868B04308600868C007DB
:102BC00042D11868410706D50721090222688A43C5
:102BD000D96811432160000707D50720C00221688A
:102BE00081431869C0000843206000F0A5F82168FF
:102BF0000906090F0822120200321202C93212021B
:102C00008432515CC84020210902003109020031A0
:102C10000902343108600320FFF702FD002613E0AB
:102C20000298416822460C3A1268012907D003290C
:102C300003D0022905D1920304E0920102E0520779
:102C400000E092052E4601D43046FEBD05462068C0
:102C50000326B04308432060FFF788FC07466868F6
:102C600013252D028835032828D002281BD00128DF
:102C70000AD120680C210140042994D0FFF776FC8A
:102C8000C01BA842F5D9DFE720680007800F8AD073
:102C9000FFF76CFCC01BA842F6D9D5E7FFF766FC2E
:102CA000C01BA842D0D820680C2101400829F5D1CA
:102CB00079E7FFF75BFCC01BA842C5D820680C2150
:102CC00001400C29F5D16EE72020000200300002FF
:102CD000003000023430006840210902023109024C
:102CE000103109020C3109684905490F0822120206
:102CF00000321202C93212029432515CC84070474D
:102D00002020000200300002003000023430006851
:102D10004021090202310902103109020C3109680F
:102D20008904490F0822120200321202C93212022B
:102D30009432515CC840704710B540231B020233E7
:102D40001B0210331B02D9680807820F7A20000289
:102D50001230000292000824240200342402CD34F0
:102D60002402DC34A2589746012000045968090463
:102D7000490F884010BD1868C0061AD53D200002D2
:102D8000093019E08A02120F0824240200342402B8
:102D9000CD342402FC34A25C0902890F491CDC6892
:102DA000E4030FD41868C00608D53D20000209309E
:102DB00007E0F42000022430000210BDF4200002DD
:102DC0002430000242431046FDF72EFC10BDF0B542
:102DD00087B005900078C00740273F0202373F02C6
:102DE00010373F0200280BD0F9680C200140082959
:102DF0006AD13868800303D505984068002831D02F
:102E000005980078800713D5F9680C200140042943
:102E100078D138684007059C02D5E068012821D1A7
:102E20001F2000027968814320690002084378600E
:102E3000059E3078C00617D43078000730D430783B
:102E400040077ED43078800600D5D9E00598846AA2
:102E50000025002C00D1BEE1F8680C2101400C29AE
:102E600000D039E10125B6E101256C02F8680007C0
:102E7000800F00D1A1E03868F169002900D1F1E0AC
:102E8000290208433860FFF771FB05463868204285
:102E900000D0F7E0FFF76AFB401B0228F6D999E162
:102EA000386D7169002900D1CCE0012108433865F3
:102EB000FFF75CFB0546386D8007C0D4FFF756FB73
:102EC000401B0228F7D985E1FA6802400121080475
:102ED0000C2A02D1FA6802428BD13A68059B5B68E2
:102EE0004C04132636028836834208D005252D046B
:102EF000AB4200D0D6E089040A433A603A68024304
:102F00003A60DCE0F96801400C2903D1F868C0039D
:102F100000D47EE73868059CE168002900D1F3E021
:102F20000922904308433860FFF720FB05463868C4
:102F3000400700D574E7FFF719FB401B0228F6D9BC
:102F400048E101221107B86B0840029002D1B86B2A
:102F50000843B8630191049216024024240470349B
:102F600024022068C0050ED4206830432060FFF79B
:102F7000FDFA05462068304205D1FFF7F7FA401BFD
:102F80006428F7D926E105988168386D049B5C02B6
:102F90001322120288320392002900D11EE1052279
:102FA0001202914200D103E1B14200D104E1B043E9
:102FB00038659902386D8843FFE03868204203D0B5
:102FC000F069002800D106E1072044037968214018
:102FD000706A884200D8A8E002F063F9002800D0A7
:102FE000F9E07968A143059E706A01437960FF2189
:102FF00009067A688A43316A090689187960A6E069
:10300000B968059882694020000201300004203030
:10301000002A00D1B7E001221143B960796B114356
:103020007963510302680A430260FFF79FFA05467D
:10303000B868800700D509E7FFF798FA401B022817
:10304000F6D9C7E0012188433865FFF78FFA0546B6
:10305000386D800700D4F2E6FFF788FA401B02289B
:10306000F6D9B7E0290288433860FFF77FFA0546B2
:103070003868204200D1DFE6FFF778FA401B0228CB
:10308000F6D9A7E00720400379688143706A0843B6
:103090007860FF20000679688143306A0006401896
:1030A0007860C9E682433A603A6802400692069820
:1030B0008804396881433960002B00D1B8E0FFF7FC
:1030C00055FA05463868204200D099E6FFF74EFAD7
:1030D000401BB042F6D97DE00495012528063968E9
:1030E00081433960FFF742FA0646022C00D094E093
:1030F0006C063868204200D1A9E0FFF737FA801B40
:1031000003250228F5D966E0012188433860FFF7DE
:103110002DFA06463868400700D489E6FFF726FAFC
:10312000801B03250228F5D955E07968A1430143A6
:103130007960FF2109067A688A43316A090689188D
:10314000796002F0AEF8002845D1059E706A400B08
:10315000012109048140F8680006000F08221202CC
:1031600000321202C93212028432105CC1402020A7
:103170000002003000020030000234300160032001
:10318000FFF74EFA58E601229143B96051030268F5
:103190008A430260FFF7EAF90646B868800700D460
:1031A00054E6FFF7E3F9801B03250228F5D912E066
:1031B000990208433865386D30433865FFF7D6F912
:1031C0000546039E386D20421DD1FFF7CFF9401B05
:1031D000B042F7D90325284607B0F0BDB0433865A3
:1031E0009802396D81433965FFF7C0F90490039E59
:1031F000386D204207D0FFF7B9F90499401A03252A
:10320000B042F5D9E7E702980028059E00D019E6FC
:10321000B86B01998843B86314E66C06386820429D
:1032200036D0FFF7A3F9801B03250328F6D3D2E796
:10323000FFF79CF904903868204200D1E0E5FFF7E1
:1032400095F90499401A0325B042F4D9C3E7FD204B
:103250000004F9688143059B2C330DCB08431043D0
:103260001843F860FF200002FF300002FF30401CCE
:10327000396801433960FFF779F90646386820421A
:1032800006D1FFF773F9801B03250228F6D9A2E7C0
:10329000049DA0E72022815C012901D10220704712
:1032A0000146203102234B700068CA234362532336
:1032B0004362836813438360FF22426200200870E8
:1032C00001224A70704780B504F015F880BDF8B54A
:1032D00004462020205C012801D10220F8BD2346AD
:1032E0002033022058702068CA2242625322426270
:1032F000012700931F707D22D60082683B0299420D
:1033000014D1012739028A438260390382688A43D3
:103310008260FFF72BF905462168C868C0071CD1F9
:10332000FFF724F9401BB042F6D912E079028A4334
:103330008260790382688A438260FFF717F9054645
:103340002168C868800708D4FFF710F9401BB04215
:10335000F6D921680327384600E00020FF224A62A0
:103360000021009A11705770F8BDB0B5006845682B
:10337000280CC8703F242C408C70EB04DB0E4B7083
:103380002D046D0F0D70002A0ED10522D2432509A0
:1033900055432C198C701C095443E3184B70C3B26D
:1033A0001B0953431818C8700020B0BDB0B50068A1
:1033B000836A4B6003697F242402FF341C408C60C5
:1033C00003687F20184088701D0C40242C40CC706E
:1033D0005B045C0E4C703F232B400B70002A0DD118
:1033E0000522D24305095543281888702009504307
:1033F0000019487018095043C01808700020B0BD6B
:10340000B0B500281AD00446054620356878002853
:1034100004D100202870204600F03FF80220687098
:103420002068CA21416253214162204601F08CFF8D
:103430002168002804D0012004222AE00120B0BD28
:103440008868FF2212028F321202FF321202BF324C
:1034500002408A60606822690243A06910438A685A
:1034600002438A60E0680861A06800040A690243B8
:103470000A61C86880229043C860C86C03229043E8
:10348000C864E06962690243C86C1043C8640020E4
:103490000122FF234B626A70B0BD10B598B00020C6
:1034A000149004200A90012420020C900AA8FFF72F
:1034B0008EFC002801D0FEF709F92020019020049D
:1034C000029001A8FFF77DFA002801D0FEF7FEF870
:1034D000A0044021090202310902103109025031D1
:1034E0000A6802430A600224002120460A46FFF7C8
:1034F000C1F82046FFF7B4F818B010BDF0B587B09A
:1035000004462026805D012801D10220CDE00D4631
:103510002146203102204870012305910B70276855
:10352000B96840200840002A069304D0002809D139
:103530000020E87008E00028039616D100200490CF
:10354000E87015E0E8780004E9692A7812040A4373
:10355000697809021143AA780A4302436869104353
:10356000A95D09060143029125E0E8780004049072
:1035700028780826360200363602533636022336BD
:10358000B047000402906878B047000202994018E2
:103590000290A878B047324602990E180498064364
:1035A0000398285C904700068019E9696A690A4314
:1035B00002430292069BCA207862532078626868B0
:1035C0000490A86903901A027D20C600B868696A51
:1035D000019291421BD1FF210902FF310902FE3104
:1035E00009027F310A4680321040B860F868C0B2E4
:1035F0000843F860FEF7BAFF05462168C868C007AF
:1036000024D1FEF7B3FF401BB042F6D91AE0FF21E8
:103610000902FF310902FD3109027F310A46803279
:103620001040B860F868C0B20843F860FEF79EFF2B
:1036300005462168C868800711D4FEF797FF401B34
:10364000B042F6D921680323184628E00298C861E1
:10365000012000030A464432069B019E06E00298C0
:103660000862069B58035E020A464832049C039D8A
:10367000254315608A6832438A608A6802438A60FB
:10368000580440221202013212020432120213685C
:1036900003431360936803439360069B0020FF225B
:1036A0004A620021059A1170537007B0F0BDFEB553
:1036B00005462020285C012801D102265BE00E4649
:1036C0002C462034022060700120029020704F7838
:1036D000002A06D0B07839020818F1780904401899
:1036E0001DE0F80603D5EF2007400A377770F07821
:1036F00008210902003109025331090223310191E5
:1037000001998847000400903846019FB84700029D
:10371000009940180090B078B8470099081831789F
:103720004E0306432868CA2141625321416228465C
:1037300001F00AFE002803D029680420029E15E04B
:10374000C020864329684E60C86880229043C860C4
:1037500088680026800608D4284600F090F829687A
:10376000002802D00126042000E00120FF224A6246
:103770000021217060703046FEBDF0B585B0054671
:103780002020285C012801D1022475E00E4629463C
:1037900020310220487001200491039008702C68A9
:1037A000A16840200840002A04D0002808D1002049
:1037B000F07007E000280DD100200290F0700CE0BE
:1037C000F078000431780904727812025118B27846
:1037D0008F1818E0F07800040290307808273F0234
:1037E00000373F0253373F022337B84700040190A8
:1037F0007078B8470002019940180190B078B84736
:1038000001990F1802980743CA2060625320606232
:10381000284601F099FD002803D029680420039C64
:1038200024E07F2000027F3000027F3007402968BB
:103830000F60012082048B6893438B60F2683369C8
:1038400013438A681A438A60CA6880239A43CA600D
:103850008A680024920609D4284600F010F82968E6
:10386000002802D00124042000E00120FF224A6247
:103870000021049A11705070204605B0F0BD70B55B
:1038800004460068C168A0229143C160FEF76EFE45
:10389000054603263602E9362068C068800606D44D
:1038A000FEF764FE401BB042F6D3032070BD00203B
:1038B00070BDF8B5002836D0044605465035687806
:1038C000002804D100202870204600F02EF80220A5
:1038D00068702068016840229143016001214B0219
:1038E000A26913406668A7683743E6683E432769C4
:1038F000374366693E431E43E3693343266A1E43EA
:10390000A36A33430360120C04231340626A1A4310
:103910004260E26A0261CA02C3699343C361002044
:1039200060656970F8BD0120F8BD7047F0B585B0DD
:10393000044604A8002505802746503778780128DA
:1039400002D0787822280AD10126002908D0002A3E
:1039500006D00395002B03D03878012803D1022626
:10396000304605B0F0BD0120019038707E78012E00
:1039700001D132267E7003986065E387A387A26336
:10398000A3862163A064E064E3862268A36A0198A9
:10399000400302900093834206D116680298864342
:1039A00016601668064316601668760603D4166815
:1039B0004023334313600A9D66680198C302E068A0
:1039C00098424AD1002E06D041208000864209D17B
:1039D000E08E012806D10888D060881C2063E08E24
:1039E000401EE086E08E002800D181E001980003AF
:1039F00001902E46E08E002800D1AEE00221002288
:103A00002046334601F080FD03260028A8D1206817
:103A1000216B0A88C260E28E521EE286891C2163F5
:103A2000E18E002907D1A16A029A914203D101686F
:103A3000019A114301600121002220462B4601F02A
:103A400063FD00288CD1A06B2168C9680180801CAF
:103A5000A063E08F401EE087CBE7002E06D0412018
:103A60008000864209D1E08E012806D1481C2063DF
:103A70000878D060E08E401EE086E08E002851D0AD
:103A80000198000301902E46E08E002872D002219A
:103A900000222046334601F037FD0326002800D0DF
:103AA0005EE7216B481C206320680978C160E18EC5
:103AB000491EE186E18E002907D1A16A029A91424E
:103AC00003D10168019A11430160012100222046BF
:103AD0002B4601F019FD002800D041E7A06B411CE6
:103AE000A1632168C9680170E08F401EE087CAE7C2
:103AF0000298009981422E4604D101980003116872
:103B000001431160012100222046334601F0FCFCF4
:103B10000028039D53D1A06B811CA1632168C96853
:103B2000018016E00298009981422E4604D1019846
:103B30000003116801431160012100222046334631
:103B400001F0E2FC0028039D39D1A06B2168C9680F
:103B50000170E08F401EE08710E060680028039D40
:103B60000CD1012100222046334601F0CDFC002873
:103B700025D1D0E760680028039D2ED0A06A029965
:103B800088420FD1012100222046334601F0BCFCBF
:103B9000002802D0606D02210FE02068C06804A9EF
:103BA000088004988021334601262046324601F0E1
:103BB000ABFC002805D0606D202101436165032620
:103BC000CEE67E70A06A0299884203D1206881689F
:103BD000C9060ED43D702E46C2E6012100222046C1
:103BE000334601F091FC0028E9D1A06B411CA16390
:103BF000ACE7616D02220A436265710302688A4381
:103C00000260002139700168029A11430160A7E641
:103C10003422825C012A01D1022106E0026834309C
:103C2000116500210170012242700846704710B5ED
:103C3000202424020034240200342402B03420461C
:103C40001C30002100F0B5F9A1684A00A052481CC0
:103C5000A060A068022811D320886188081A81B268
:103C600020200002003000020030000234300068E2
:103C7000FCF7DAFC60606068C000606010BDFEB5F3
:103C800005463420285C012801D10220FEBD1646DD
:103C90000C462F463437022078700120029038708D
:103CA000CB68096862682868082E19D0042E0AD0EB
:103CB000002E37D103F0A6FA286881690C229143BF
:103CC0008161A16809E003F0CDFA03208102286830
:103CD00082698A438261A16809021830029E4BE022
:103CE000029D2D020195066A019DAE430662029E69
:103CF000F025AA431B01DBB29A18C369F325AB4335
:103D00001343026AC36105235B029A430A231940E5
:103D1000090251180162C1690C229143C161A16875
:103D20001C3029E0029D2D030195066A019DAE43DA
:103D30000662029E1202FF252D02FF352D020F356D
:103D40002D0215401A0392B25219F3231B02C569C2
:103D50009D431543026AC56105235B039A430A2309
:103D6000194009035118016203218902C2698A437B
:103D7000C2611C30A168090202680A430260002087
:103D800038707E70FEBD10B5044634340221617077
:103D900001680A6A11231B0211331A4203D10A680F
:103DA00001239A430A6000F01EF800202070607022
:103DB00010BDB0B5002814D00446054634356878E7
:103DC000002804D100202870204600F00DF80220C1
:103DD000687001CC214603F0C4F90120687000200E
:103DE000B0BD0120B0BD704710B5402000020230C8
:103DF0000002103000023430026804210A430260DD
:103E0000142400222046FEF735FC2046FEF728FC4D
:103E100010BDB0B5044602200A46C2412068032AFC
:103E20000BD8920008231B0200331B02CF331B0266
:103E300050339A58C3681343C36001252A4603F0E0
:103E4000D6F920680168294301600020B0BD10B593
:103E5000044602200A46C2412068032A0BD8920079
:103E600008231B0200331B02CF331B0260339A5816
:103E7000C3681340C360002203F0B9F92068016AE7
:103E8000112212021132114203D101680122914321
:103E90000160002010BDB0B504464020C543206835
:103EA0000169890717D5C168890714D529463E31AC
:103EB0000161012121758069800703D02046FFF749
:103EC000B6FE05E0204600F071F8204600F06FF8DD
:103ED0000020207520680169490718D5C168490785
:103EE00015D529463C310161022121758069800583
:103EF000800F03D02046FFF79AFE05E0204600F031
:103F000055F8204600F053F800202075206801691C
:103F1000090717D5C168090714D529463831016149
:103F200004212175C069800703D02046FFF77FFE7A
:103F300005E0204600F03AF8204600F038F800206E
:103F4000207520680169C90618D5C168C90615D54C
:103F500029463031016108212175C0698005800F33
:103F600003D02046FFF763FE05E0204600F01EF870
:103F7000204600F01CF80020207520680169C90760
:103F800009D0C168C90706D029463F3101612046E2
:103F900000F00EF820680169490606D5C168490697
:103FA00003D50561204600F01AF8B0BD7047704790
:103FB000704710B53422825C012A01D102220CE044
:103FC000034634330222D14100240329224603D878
:103FD000890000684018426B1C70104610BD704785
:103FE0006821415C012901D10220704701466831F6
:103FF00024224A70006802680223134303600020F1
:10400000087020224A707047FEB505466820285C7B
:10401000012801D10220FEBD2F4668372420787088
:10402000286803680126B34303603E7003230293AC
:104030001B0584689C430C43846000290DD14168B2
:104040001023994393B20B434360FF210906436851
:104050008B43110C09065918416001683143016016
:10406000FEF784FA034601200002FF300002FF3011
:104070000002FF300090B10500262846324603F0CA
:1040800038FD0028029802D12020787030463E701A
:10409000FEBD70477047FEB50168CA690C6813071A
:1040A000029001914FD000938E68012733463B4028
:1040B00039020D462035204625405D1949D0D507E7
:1040C000064607D00E4205D0019807620298C16EDD
:1040D0003943C1669107029C019807D5002B05D092
:1040E00002210162E16E04250D43E566510707D503
:1040F000002B05D004210162E16E02250D43E56627
:104100000099002908D520213140591804D00821F0
:104110000162E06E0843E066E06E002833D090064E
:1041200004D5B00602D5204603F056FBE06E00072A
:1041300034D420688068400630D42046FFF7AAFFB8
:104140000020E066FEBD930601D5A3065FD420469D
:104150008E68029F3B4652330125D10201D5710280
:1041600012D4110601D5010636D451060BD54106ED
:1041700009D5019801684022914301602020D8753B
:10418000384600F0B9F9FEBD2905019801622020EA
:10419000D87518763846FFF77CFFFEBD204603F041
:1041A0000DFB2068816849062DD581684022914326
:1041B0008160606E002826D00821090200310902C2
:1041C0007731090221318163FDF713FD0028DAD030
:1041D000606E816B8847FEBDD97D2129D3D11988B6
:1041E000002917D02903BA688A4202D13969002907
:1041F0001AD0F96C4A1CFA6409780198816218880F
:10420000401E1880FEBD2046FFF744FFFEBD03F0B0
:10421000E3FAFEBD019801688022914301600168C4
:1042200040220A430260FEBDF96C8A1CFA640988C8
:1042300001221202FF320A4001988262DFE7B0B524
:1042400000282FD00446054668356878002804D138
:1042500000202870204600F028F82420687020688C
:1042600001680125A9430160606A002802D0204648
:1042700003F0C0F9204603F0E5FA002813D1092025
:10428000C00221684A6882434A6088682A229043B3
:1042900088600868012202430A60204603F006FA9B
:1042A000054600E001252846B0BDF0B58BB00546B7
:1042B00040273F0202373F0210373F022C37386851
:1042C0000124204338603868204002900298386802
:1042D000204338603868204002900298A004F968B2
:1042E0000143F96002AE301D2021FBF762FFE002BE
:1042F0000690042002903046FEF763FB7868204366
:104300007860786820400190019807F022FD20260F
:104310003602003636020436360268360020802126
:10432000102240231B0202331B0480333062052716
:1043300088C632607060B160F06030617061083EC4
:104340003046FDF736FE2E66B5620B25284621461F
:104350002246FEF78FF92846FEF782F91D252846EA
:1043600021462246FEF786F92846FEF779F90BB07A
:10437000F0BDF8B504465834A37C0225202B25D186
:104380000123002923D0002A21D08668012300932D
:104390001F03BE4204D10369002B01D1CB0734D1E6
:1043A000237C012B2B4612D0628022804165002E97
:1043B00014D0009A11078E420BD0BE4216D101696B
:1043C000002911D101210902FF310EE02B461846C8
:1043D000F8BD0169002905D03F2106E001690029E7
:1043E000009A01D07F2100E0FF21A1800023C36655
:1043F0002221A1740068816811438160237409211E
:10440000490102680A430260E1E7009BDFE710B55B
:104410000446202000020030000202300002783002
:10442000816800290AD0E06E002807D12020000210
:104430000030000202300002783088472021090253
:104440000031090202310902783101222046FFF7CA
:1044500090FF10BDF8B51346044606465036727EEE
:104460000220202A43D10125002941D0002B3FD032
:1044700001221503A768AF4204D12569002D01D19F
:10448000CD0737D1357E012D054631D0738000250B
:10449000E566E16432763380206E08221202003233
:1044A0001202773212023732009208273F02003799
:1044B0003F0277373F02B33708221202003212025E
:1044C000773212028532C2620763009A42638563C3
:1044D0002122727622682832FDF70BFE20684021E7
:1044E00001623576816880220A43826000E00546D9
:1044F0002846F8BD1546FBE780B5202000020030B5
:1045000000020230000278304068002800D0804766
:1045100080BD7047B0B5202000020030000201309D
:104520000002E4300178002928D101210170002225
:1045300040231B0201331B0224331B020724C163E7
:104540000464426442628262026342630424CD07CF
:1045500043608560C260026141618461C261026240
:104560004902402212020232120210321202343286
:1045700013680B431360001DFDF739FAB0BDFF2827
:1045800001D8002100E00121C900F0221202F0321E
:10459000104200D0091DCC221202CC32104200D0B1
:1045A000891CAA221202AA321040421E9041081809
:1045B000C0B27047BCB50B231B07C3180A24E341E4
:1045C000032B31D89B000824240200342402CD346C
:1045D0002402EC34E3589F4640231B0202331B02A3
:1045E00010331B022C331C68012526E040231B02DC
:1045F00002331B0210331B022C331C6804251CE001
:1046000040231B0202331B0210331B022C331C6895
:10461000082512E040231B0202331B0210331B0249
:104620002C331C68022508E040231B0202331B02C6
:1046300010331B022C331C6880252C431C601B6824
:104640002B400193019B11601146FDF7C0FEBCBDDC
:1046500080B5FFF794FF8000202109020031090294
:104660000431090228310858002800D0804780BD55
:1046700070B51D4614460E460846FFF780FF8000C1
:1046800020210902003109020431090228310818E9
:10469000002D0CD00560304600F07AFC0546002263
:1046A0002146FDF7E7FF2846FDF7DAFF70BD002140
:1046B000016070BD80B5D2B2FDF751FF80BD10B56D
:1046C000202424020034240204342402A834207854
:1046D000002812D1FFF71EFF082000020030000260
:1046E000CE30000208300068804700F067FA00F022
:1046F0009DF802F0E0FE0120207010BDB0B5C401AD
:10470000410E7D2200232046FBF7F2FC044600F018
:1047100086F8054600F083F8401BA04201D200BF96
:10472000F8E7B0BDF8B50C460090202636020036FA
:104730003602013636020436203600223046FEF7B5
:1047400035FE606805460027304600993A46FEF778
:104750000CFE304621463A46FEF728FE6068854248
:10476000F0D1009EF078810705D099221202AA327A
:104770001202A03204E044221202553212025032D8
:1047800071784B1E5B00DA400323134005221202AE
:10479000B5324243D01C8008B2781018C01A3D22AE
:1047A0004A433C3A91B2C90B511809B24908401822
:1047B000012109025131090280314143E120000108
:1047C0002278424360783C234343A078181880182D
:1047D00008188002401BFA210902BA31090203318C
:1047E0000902FF314018F8BD032070472020000265
:1047F0000030000201300002043040687047FEB50E
:10480000684601A9FFF78EFF202109020031090245
:104810000131090204314968401A06B080BDFEB575
:10482000684601A9FFF77EFF06B080BDF0B587B0EE
:10483000202636020036360201363602043630783B
:10484000002831D10024B463F46303200002FF3058
:104850001F21402212042832120232627462B162B5
:10486000F0623463354620352846FEF7C9FD01A9BC
:10487000CC7001278F704F700F7028462246FEF7CC
:1048800016FF039402940694059402A92846224632
:10489000FEF773FF2846FEF7FDFC39022846FEF7B7
:1048A00016FD00F039F9377007B0F0BD10B50420DF
:1048B000002100F022FB2020000200300002013025
:1048C00000020430016A8A68D2041BD5CA68D20586
:1048D00018D5CA68FF231B02FF331B02FE331B02DD
:1048E0007F33134301221402A343CB6051044022BF
:1048F000120201321202043212021432116020300C
:10490000FEF7E1FC10BDF0B58BB006460225202075
:104910000002003000020130000204300A90445FBF
:10492000FFF76DFF301AE11C0024814201D22146BD
:1049300000E00121042000F0E0FA00F0C7FA0128AD
:1049400002D10A98405F361A0896B70A01252D024F
:1049500051352D02803538462946FBF765FE0E207D
:1049600000020F30461A00D22646052109024631C0
:1049700009040898FBF758FE09904543781B8019F5
:10498000E1210E013146FBF74FFE079046437519B2
:10499000781B3B213B2800D8084606913C21FBF7B9
:1049A00043FE04460A9B987A3818411BFF221202E4
:1049B000C43262438E18FF210902FF310902F1312E
:1049C0000902F031079A5143FF221202FF3212020C
:1049D000AE3212028032099D6A438018401806994F
:1049E000C9430694614344183B3403252D02FF3527
:1049F000089828404019D968471A187A0190587ABF
:104A00000590D87A0890587F0490987F0290D87FBC
:104A1000039000F091F8FF200002FF300002FC300C
:104A20000002BFB2BD4203D23F18641C761CF8E7F7
:104A3000B0B23B213B2800D308460091201A80B237
:104A40003C242146FBF7F0FD0699059A891805904C
:104A50004018069080B23B2800D800982146FBF70A
:104A6000E3FD01460798019A801807910818019004
:104A700080B2172800D817201821FBF7D5FD034670
:104A8000099802990818C1180498401E039A9207C1
:104A900007D00822120200321202CC3212029432E3
:104AA00006E00822120200321202CC321202A032B8
:104AB000125C88B2904205D988B211461C46FBF7B9
:104AC000B3FD234664200A9C2154E82058430199F1
:104AD000401844216054002205204006226562658A
:104AE000A265E0652266E81BA0642146443108986F
:104AF000C87001200002A066C420059B43439B1997
:104B00008B70079B43430698181848702034204642
:104B1000FEF7F4FC0BB0F0BD10B5202424020034E5
:104B2000240201342402043420461C30214608317A
:104B3000FFF7F8FD606010BD80B520200002003056
:104B40000002013000020430026AD168FF231B0218
:104B5000FF331B02FE331B027F330B43012109028B
:104B60008B43D3602030FEF7B2FB80BD80B57D2241
:104B700000210B46FBF7ECFA4906C009401880BD3E
:104B800010B5C401410E7D2200232046FBF7B0FA88
:104B900010BD1FB503A908800020C043009020204D
:104BA00000020030000207300002F43002AC0123A2
:104BB0002246FEF7BBFE208804B010BD80B5202041
:104BC00000020030000207300002F43040210902E8
:104BD000013109023031090201602021090200314E
:104BE00009020031090234310A68002198231B02AE
:104BF00096331B0281339A4204D35208491C072979
:104C0000F9D1072100224262826241239B004907B9
:104C1000890E4360FC338260C2600261426183613D
:104C2000C161026201210903402212020232120212
:104C300010321202343213680B431360FEF739FE50
:104C4000002801D0FCF742FD00F051F880BDF0B51E
:104C50008BB006AC14212046FBF7ABFA022005907E
:104C6000089001200290079005200607802508275C
:104C70003F0200373F0245373F02B53730462946ED
:104C80002246B8470022049208231B0200331B026D
:104C900046331B02B533039330462946984705989F
:104CA0000890402530462946019422460097B8478F
:104CB00030462946049A039B98470598089020257A
:104CC000304629462246B84730462946049A039C76
:104CD000A047029F0897FD0330462946019A009B92
:104CE0009847304629463A46A0470BB0F0BDF0B58C
:104CF00087B00020069003210591022104910391C1
:104D0000029005200407202102AD08273F0200374A
:104D10003F0245373F02B53720462A46B847402173
:104D200020462A46B847802120462A46B847012611
:104D300004960396F103019120462A46B84720467F
:104D400001993246FFF7B6FC07B0F0BD00BFFDE7A2
:104D500080B5202000020030000200300002B03098
:104D60000C30FDF739FC002801D0FCF7AFFC80BD0A
:104D7000F0B58DB008AD142101912846FBF719FA62
:104D80004026360202363602103636022C3630689D
:104D900002210843306030680840039000270A97DA
:104DA0000124099410200890039850200004043036
:104DB00000022946FDF70BFB03AD28460199FBF7DE
:104DC000F8F9306820433060306820400290059741
:104DD0000494E00203900298052000072946FDF79D
:104DE000F6FA0DB0F0BD80B52020000200300002C0
:104DF0000330000238304168002904D000F011F877
:104E000000F034F880BD0068002804D000F00FF8EE
:104E100000F02DF880BD00F003F800F026F880BD0A
:104E2000704780B500200121FDF745FC80BD10B51D
:104E3000EFF3108472B6FFF70AFF0820000200307B
:104E40000002CE3000020830406880474020000455
:104E500070300002016804220A43026084F3108863
:104E600001200146FDF742FC10BD7047704710B5A8
:104E7000EFF3108472B640200002023000021030BE
:104E80000002026801210A43026002685207FCD551
:104E9000090602680A43026001688901FCD5C168FD
:104EA00003220A43C260C1680C220A400C2AFAD1CC
:104EB000FFF71DFF0820000200300002CE30000284
:104EC00008300068804784F3108810BDEFF310802D
:104ED00072B620210902003109020331090238317A
:104EE0000A68496880F31088002A01D0012000E098
:104EF0000220002900D000207047EFF3108272B624
:104F000000290BD001291AD1202109020031090200
:104F10000331090238314968014308E020210902C0
:104F200000310902033109023831496881432020E8
:104F3000000200300002033000023830416082F38A
:104F40001088704780B52020000200300002023037
:104F500000024830083008210902003109025231AC
:104F60000902393102F0AEF980BD80B5202000027F
:104F7000003000020230000248301C3008210902D3
:104F800000310902523109026B3102F09BF980BDF8
:104F9000401E80B2072808D8082109020031090202
:104FA000CF3109028031085C00E0072040B2704731
:104FB0007047002808D4032203469343E0221204DA
:104FC000E43212029A1807E00C220240E0231B048C
:104FD000ED331B021433D2188007C00E8901C9B209
:104FE0008140FF2383401068984308431060704756
:104FF000BFF34F8FE0200004ED3000020C3005219C
:105000000902FA31090404310160BFF34F8F00BF78
:10501000FDE7B0B520252D0200352D0201352D020A
:105020007035A87C401CA874C0B205280DD3202080
:10503000000200300002033000024030443002F031
:10504000FFF900202872A8742CE020200002003014
:1050500000020330000206300078202109020031EE
:1050600009020331090208310978C9B2014303D0AA
:1050700075210902303102E0172109027031202424
:1050800024020034240203342402403444342046F1
:1050900002F082F9204602F090F90120A871696CB3
:1050A000491E69646872B0BD10B520242402003422
:1050B000240203342402AC34143446210902503152
:1050C000204602F069F9204602F077F9202000021C
:1050D000003000020130000270300121C17110BDAA
:1050E00010B520200002003000020330000218300A
:1050F0000088002810D07D21C900414320242402CB
:10510000003424020334240240345834204602F090
:1051100043F9204602F051F920200002003000023D
:10512000013000027030012101728171FF210231D2
:10513000418110BD10B52020000200300002033074
:1051400000021A30008800280FD07D21C900414399
:10515000202424020034240203342402AC342046E8
:1051600002F01AF9204602F028F92020000200304F
:10517000000201300002703001210173017281715F
:10518000817210BD10B520200002003000020330F3
:10519000000224300168002916D0202424020034A3
:1051A00024020334240240343034204602F0F4F860
:1051B000204602F002F920200002003000020130F7
:1051C000000270300121817110BDF8B50120C402C8
:1051D0000520050720273F0200373F0201373F0225
:1051E0007037787B022816D8202636020036360221
:1051F00003363602AC3628364B208100304602F0AA
:10520000CBF8304602F0D9F828462146FDF7A3F93D
:10521000787B401C0EE028462146FDF79CF92020B3
:1052200000020030000203300002AC30283002F0EF
:1052300007F900207873F8BDB0B5202424020034AB
:1052400024020234240248342046083002F0F8F8E0
:105250000520000701256902FDF778F9E178884209
:1052600000D125700020A070B0BDB0B5202424026C
:105270000034240202342402483420461C3002F058
:10528000DFF8012529035020000404300002FDF757
:105290005DF96179884200D1657000202071B0BD50
:1052A000704710B54021090202310902103109028C
:1052B00038310A462C3A12681206120F01D000212A
:1052C0001AE00A68D3004022120470321202002B46
:1052D00009D401231B070C681C430C6012680C687E
:1052E0009C430C6000E012680321CB0293438903C6
:1052F0004840184341424141402000020230000230
:1053000020300002026801239A43521802600068AC
:105310001840401A411E884110BD80B506F0ECFCD3
:1053200080BD70B504460928054600D809250A261F
:1053300028463146FBF778F94643A91B491B091952
:1053400000010843C0B270BDF8B505460068C168E9
:105350000024490611D4E143C160FDF707F9064670
:1053600003273F02E9372868C068400605D4FDF7E7
:10537000FDF8801BB842F6D303242046F8BD80B563
:10538000FFF794FA80BDB0B5202000020030000283
:1053900003300002AC30643002F052F86E20202559
:1053A0002D0200352D0201352D02703501242C54BB
:1053B000202000020030000203300002103000788C
:1053C00003280FD0022806D0012814D10520000799
:1053D0000221002402E00520000702212246FDF7F9
:1053E000BEF807E072242A5D052000070221FDF7C0
:1053F000B6F82C5DEC75B0BDB0B5202000020030D1
:10540000000205300002EC3002F01AF86F2020256F
:105410002D0200352D0201352D02703501242C544A
:105420002020000200300002033000021230007819
:1054300003280FD0022806D0012814D10520000728
:105440000121002402E00520000721462246FDF745
:1054500086F807E073242A5D052000070121FDF787
:105460007EF82C5D2C76B0BDFEB5092408273F02DE
:1054700000373F0261373F0261372046B84702904C
:105480000620B84701900720B84700900820B84789
:1054900006460021204601F0A3FD3B252846B847DB
:1054A000014640242143284601F09AFD3B2000F0AC
:1054B00057FE8006FAD433200002BC300002A1302F
:1054C000000200F07EFF3B25284600F049FE044321
:1054D0002846214601F084FD3B2000F041FE800675
:1054E000FAD40920029901F07BFD0198000200998D
:1054F00040183D210902093148434E438036310AA4
:10550000081800F05EFFFEBDF8B51D4600920E467D
:105510000446FDF72BF807460098002833D0206892
:1055200081683140B14233D1691CF8D0002D05D0DB
:10553000FDF71CF8C01BA842F1D920684168E022A1
:105540009143416001684022914301600121490378
:10555000A26A8A4207D10121490302688A43026094
:1055600002680A43026050340020207001206070FD
:105570000320F8BD691C06D0002DDFD0FCF7F6FF34
:10558000C01BA842D9D8206881683140B142F1D10E
:105590000020F8BD704720210902003109020031C6
:1055A00009024031086070470120704780B5202013
:1055B0000002003000020030000240300068406805
:1055C0008047801C80BD2020000200300002073090
:1055D0000002003000797047F0B585B0012869D02D
:1055E00000287BD104912026360200363602073689
:1055F00036020036378C272000F0B2FD0446222008
:10560000305C0290302000F0ABFD0546242003966C
:10561000365C701E864107202040C019401CFAF7F6
:10562000B3FF02460B4600243F273F02F0373F04FA
:1056300002980028214600D139462046FAF7E8FDB5
:1056400002460B460620054000D12F46204639462B
:10565000FAF7DEFD05460F460498FAF795FF024675
:105660000B4628463946FAF7D3FD02460B46B107EA
:105670002046FAF7CDFD40231B0220331B042246AF
:10568000FAF778FE05460E460398C069FAF77CFFE4
:1056900002460B4628463146FAF7D4FE40231B0249
:1056A0008F331B0240331B022246FAF763FE07F0DA
:1056B00015F9CAE020273F0200373F0207373F02B3
:1056C0000037786C09280FD0082809D00022072855
:1056D000104611D140200002FE3008E00020B6E064
:1056E000412000020E3002E0412000021E30000284
:1056F000843000028030002202900392C800BC6C0B
:10570000A100401A5221795CC907C90E40185021E6
:10571000795C002901D11C2100E008214018FAF72A
:1057200033FF05460E464C20385C0028019401D119
:10573000204607E03F200002FF300002FF30000259
:10574000FE3020188000FAF71FFF02460B4628465D
:105750003146FAF777FE06F0F9FF04460D464D2074
:105760000497385C001DFAF70FFF02460B462046EF
:105770002946FAF7FFFD05460F4600263246334616
:10578000FAF7D8FE00282C4600D1044628463946B0
:1057900032463346FAF7CEFE002800D107464023B2
:1057A0001B0220331B04204639463246FAF730FDEF
:1057B00007460091012001998840FAF7D1FE024680
:1057C0000B4603980299FAF73DFE02460B463F212D
:1057D0000902F03109043046FAF734FE04460D465A
:1057E0003A46009BFAF7C6FD074603914E200499FE
:1057F000085AFAF7C9FE40231B0211331B04324634
:10580000FAF706FD22462B46FAF7B4FD3A46039B0B
:10581000FAF7FEFC40231B028F331B0240331B02AE
:105820003246FAF7A7FDD922120216321202873247
:1058300012022B323F231B02EF331B02F7331B02F2
:10584000CE33FAF7E5FC06F0E5FFFAF7CFFE05B038
:10585000F0BD0020704770B520252D0200352D02C7
:1058600000352D024035686028460830082424029F
:10587000003424026034240227340826360200361D
:10588000360272363602C5362146B04728461C30ED
:105890002146B047284630302146B0472868016885
:1058A0000120884700F0B3FCFFF7DEFD002420460E
:1058B00000F00BFE28688168202000020030000202
:1058C000003000021C3088470826360200363602B7
:1058D000CE3636027036302C09D0305D00F0C3FD74
:1058E00031194878897801F07BFBE41CF3E7002448
:1058F000204600F0B8FD20200002003000020730F2
:10590000000200300471286840688047801C70BD28
:10591000F0B585B06C4614212046FAF74AFC022007
:105920000290102000021130000401900127790339
:1059300050200004083000020826360200363602E5
:1059400045363602B5362246B047B90250252D04F9
:1059500004352D0228462246B047F9022846224641
:10596000B047390228462246B04705B0F0BDF0B531
:1059700085B06C4614212046FAF71BFC202000025B
:1059800000300002003000020430FFF704FE032064
:1059900003900220029010200002113000040190B8
:1059A000012779035020000408300002082636023F
:1059B0000036360245363602B5362246B047B902C1
:1059C00050252D0404352D0228462246B047F90201
:1059D00028462246B047390228462246B04705B03D
:1059E000F0BDFEB5036804460290012779035020FC
:1059F0000004083000020025082636020036360270
:105A000046363602713601962A46B0476368B902B7
:105A1000502636040436360230462A46019CA047FA
:105A200002988368F90230462A46A0470298C36864
:105A3000390230462A46A047FEBDFEB51C460292FA
:105A40000D46064600F00FFD284600F0BAFC052082
:105A500000F03BFD01200190FBF7E6FA01F020FC8D
:105A60000746384601F022FC0546A04205D23046E2
:105A700000F0A5FB02998842F3DDA542019C00D20B
:105A8000002401F059F82046FEBDFEB502A800250D
:105A900005702026360200363602073636020036FA
:105AA0003079022839D001285DD1707901285BD086
:105AB000002858D12420305C012800D081E03F200C
:105AC00000F04EFB02A908700878800779D43E20C8
:105AD0000B2101F085FA3F20102101F081FA2027E7
